{
  "_format": "hh-sol-artifact-1",
  "contractName": "NFTEventTicketing",
  "sourceName": "contracts/NFTEventTicketing.sol",
  "abi": [
    {
      "inputs": [],
      "stateMutability": "nonpayable",
      "type": "constructor"
    },
    {
      "inputs": [
        {
          "internalType": "address",
          "name": "sender",
          "type": "address"
        },
        {
          "internalType": "uint256",
          "name": "tokenId",
          "type": "uint256"
        },
        {
          "internalType": "address",
          "name": "owner",
          "type": "address"
        }
      ],
      "name": "ERC721IncorrectOwner",
      "type": "error"
    },
    {
      "inputs": [
        {
          "internalType": "address",
          "name": "operator",
          "type": "address"
        },
        {
          "internalType": "uint256",
          "name": "tokenId",
          "type": "uint256"
        }
      ],
      "name": "ERC721InsufficientApproval",
      "type": "error"
    },
    {
      "inputs": [
        {
          "internalType": "address",
          "name": "approver",
          "type": "address"
        }
      ],
      "name": "ERC721InvalidApprover",
      "type": "error"
    },
    {
      "inputs": [
        {
          "internalType": "address",
          "name": "operator",
          "type": "address"
        }
      ],
      "name": "ERC721InvalidOperator",
      "type": "error"
    },
    {
      "inputs": [
        {
          "internalType": "address",
          "name": "owner",
          "type": "address"
        }
      ],
      "name": "ERC721InvalidOwner",
      "type": "error"
    },
    {
      "inputs": [
        {
          "internalType": "address",
          "name": "receiver",
          "type": "address"
        }
      ],
      "name": "ERC721InvalidReceiver",
      "type": "error"
    },
    {
      "inputs": [
        {
          "internalType": "address",
          "name": "sender",
          "type": "address"
        }
      ],
      "name": "ERC721InvalidSender",
      "type": "error"
    },
    {
      "inputs": [
        {
          "internalType": "uint256",
          "name": "tokenId",
          "type": "uint256"
        }
      ],
      "name": "ERC721NonexistentToken",
      "type": "error"
    },
    {
      "inputs": [
        {
          "internalType": "address",
          "name": "owner",
          "type": "address"
        }
      ],
      "name": "OwnableInvalidOwner",
      "type": "error"
    },
    {
      "inputs": [
        {
          "internalType": "address",
          "name": "account",
          "type": "address"
        }
      ],
      "name": "OwnableUnauthorizedAccount",
      "type": "error"
    },
    {
      "anonymous": false,
      "inputs": [
        {
          "indexed": true,
          "internalType": "address",
          "name": "owner",
          "type": "address"
        },
        {
          "indexed": true,
          "internalType": "address",
          "name": "approved",
          "type": "address"
        },
        {
          "indexed": true,
          "internalType": "uint256",
          "name": "tokenId",
          "type": "uint256"
        }
      ],
      "name": "Approval",
      "type": "event"
    },
    {
      "anonymous": false,
      "inputs": [
        {
          "indexed": true,
          "internalType": "address",
          "name": "owner",
          "type": "address"
        },
        {
          "indexed": true,
          "internalType": "address",
          "name": "operator",
          "type": "address"
        },
        {
          "indexed": false,
          "internalType": "bool",
          "name": "approved",
          "type": "bool"
        }
      ],
      "name": "ApprovalForAll",
      "type": "event"
    },
    {
      "anonymous": false,
      "inputs": [
        {
          "indexed": false,
          "internalType": "uint256",
          "name": "_fromTokenId",
          "type": "uint256"
        },
        {
          "indexed": false,
          "internalType": "uint256",
          "name": "_toTokenId",
          "type": "uint256"
        }
      ],
      "name": "BatchMetadataUpdate",
      "type": "event"
    },
    {
      "anonymous": false,
      "inputs": [
        {
          "indexed": false,
          "internalType": "uint256",
          "name": "eventId",
          "type": "uint256"
        },
        {
          "indexed": false,
          "internalType": "string",
          "name": "name",
          "type": "string"
        },
        {
          "indexed": false,
          "internalType": "enum NFTEventTicketing.EventType",
          "name": "eventType",
          "type": "uint8"
        },
        {
          "indexed": false,
          "internalType": "uint256",
          "name": "price",
          "type": "uint256"
        },
        {
          "indexed": false,
          "internalType": "uint256",
          "name": "capacity",
          "type": "uint256"
        },
        {
          "indexed": false,
          "internalType": "address",
          "name": "organizer",
          "type": "address"
        }
      ],
      "name": "EventCreated",
      "type": "event"
    },
    {
      "anonymous": false,
      "inputs": [
        {
          "indexed": false,
          "internalType": "uint256",
          "name": "_tokenId",
          "type": "uint256"
        }
      ],
      "name": "MetadataUpdate",
      "type": "event"
    },
    {
      "anonymous": false,
      "inputs": [
        {
          "indexed": true,
          "internalType": "address",
          "name": "previousOwner",
          "type": "address"
        },
        {
          "indexed": true,
          "internalType": "address",
          "name": "newOwner",
          "type": "address"
        }
      ],
      "name": "OwnershipTransferred",
      "type": "event"
    },
    {
      "anonymous": false,
      "inputs": [
        {
          "indexed": false,
          "internalType": "uint256",
          "name": "ticketId",
          "type": "uint256"
        },
        {
          "indexed": false,
          "internalType": "uint256",
          "name": "resalePrice",
          "type": "uint256"
        }
      ],
      "name": "TicketListedForResale",
      "type": "event"
    },
    {
      "anonymous": false,
      "inputs": [
        {
          "indexed": false,
          "internalType": "uint256",
          "name": "ticketId",
          "type": "uint256"
        },
        {
          "indexed": false,
          "internalType": "uint256",
          "name": "eventId",
          "type": "uint256"
        },
        {
          "indexed": false,
          "internalType": "address",
          "name": "buyer",
          "type": "address"
        }
      ],
      "name": "TicketPurchased",
      "type": "event"
    },
    {
      "anonymous": false,
      "inputs": [
        {
          "indexed": false,
          "internalType": "uint256",
          "name": "ticketId",
          "type": "uint256"
        },
        {
          "indexed": false,
          "internalType": "address",
          "name": "newOwner",
          "type": "address"
        }
      ],
      "name": "TicketResold",
      "type": "event"
    },
    {
      "anonymous": false,
      "inputs": [
        {
          "indexed": true,
          "internalType": "address",
          "name": "from",
          "type": "address"
        },
        {
          "indexed": true,
          "internalType": "address",
          "name": "to",
          "type": "address"
        },
        {
          "indexed": true,
          "internalType": "uint256",
          "name": "tokenId",
          "type": "uint256"
        }
      ],
      "name": "Transfer",
      "type": "event"
    },
    {
      "inputs": [
        {
          "internalType": "address",
          "name": "to",
          "type": "address"
        },
        {
          "internalType": "uint256",
          "name": "tokenId",
          "type": "uint256"
        }
      ],
      "name": "approve",
      "outputs": [],
      "stateMutability": "nonpayable",
      "type": "function"
    },
    {
      "inputs": [
        {
          "internalType": "uint256",
          "name": "eventId",
          "type": "uint256"
        },
        {
          "internalType": "uint256",
          "name": "teamIndex",
          "type": "uint256"
        }
      ],
      "name": "awardPrize",
      "outputs": [],
      "stateMutability": "nonpayable",
      "type": "function"
    },
    {
      "inputs": [
        {
          "internalType": "address",
          "name": "owner",
          "type": "address"
        }
      ],
      "name": "balanceOf",
      "outputs": [
        {
          "internalType": "uint256",
          "name": "",
          "type": "uint256"
        }
      ],
      "stateMutability": "view",
      "type": "function"
    },
    {
      "inputs": [
        {
          "internalType": "uint256",
          "name": "ticketId",
          "type": "uint256"
        }
      ],
      "name": "buyResaleTicket",
      "outputs": [],
      "stateMutability": "payable",
      "type": "function"
    },
    {
      "inputs": [
        {
          "internalType": "uint256",
          "name": "eventId",
          "type": "uint256"
        }
      ],
      "name": "buyTicket",
      "outputs": [],
      "stateMutability": "payable",
      "type": "function"
    },
    {
      "inputs": [
        {
          "internalType": "uint256",
          "name": "ticketId",
          "type": "uint256"
        }
      ],
      "name": "cancelResaleListing",
      "outputs": [],
      "stateMutability": "nonpayable",
      "type": "function"
    },
    {
      "inputs": [
        {
          "internalType": "string",
          "name": "name",
          "type": "string"
        },
        {
          "internalType": "enum NFTEventTicketing.EventType",
          "name": "eventType",
          "type": "uint8"
        },
        {
          "internalType": "uint256",
          "name": "price",
          "type": "uint256"
        },
        {
          "internalType": "uint256",
          "name": "capacity",
          "type": "uint256"
        }
      ],
      "name": "createEvent",
      "outputs": [],
      "stateMutability": "nonpayable",
      "type": "function"
    },
    {
      "inputs": [
        {
          "internalType": "uint256",
          "name": "",
          "type": "uint256"
        }
      ],
      "name": "events",
      "outputs": [
        {
          "internalType": "uint256",
          "name": "id",
          "type": "uint256"
        },
        {
          "internalType": "string",
          "name": "name",
          "type": "string"
        },
        {
          "internalType": "enum NFTEventTicketing.EventType",
          "name": "eventType",
          "type": "uint8"
        },
        {
          "internalType": "uint256",
          "name": "price",
          "type": "uint256"
        },
        {
          "internalType": "uint256",
          "name": "capacity",
          "type": "uint256"
        },
        {
          "internalType": "uint256",
          "name": "ticketsSold",
          "type": "uint256"
        },
        {
          "internalType": "address",
          "name": "organizer",
          "type": "address"
        }
      ],
      "stateMutability": "view",
      "type": "function"
    },
    {
      "inputs": [
        {
          "internalType": "uint256",
          "name": "eventId",
          "type": "uint256"
        }
      ],
      "name": "fundPrizePool",
      "outputs": [],
      "stateMutability": "payable",
      "type": "function"
    },
    {
      "inputs": [
        {
          "internalType": "uint256",
          "name": "tokenId",
          "type": "uint256"
        }
      ],
      "name": "getApproved",
      "outputs": [
        {
          "internalType": "address",
          "name": "",
          "type": "address"
        }
      ],
      "stateMutability": "view",
      "type": "function"
    },
    {
      "inputs": [],
      "name": "getEventIdCounter",
      "outputs": [
        {
          "internalType": "uint256",
          "name": "",
          "type": "uint256"
        }
      ],
      "stateMutability": "view",
      "type": "function"
    },
    {
      "inputs": [
        {
          "internalType": "uint256",
          "name": "",
          "type": "uint256"
        },
        {
          "internalType": "uint256",
          "name": "",
          "type": "uint256"
        }
      ],
      "name": "hackathonTeams",
      "outputs": [
        {
          "internalType": "string",
          "name": "name",
          "type": "string"
        }
      ],
      "stateMutability": "view",
      "type": "function"
    },
    {
      "inputs": [
        {
          "internalType": "address",
          "name": "owner",
          "type": "address"
        },
        {
          "internalType": "address",
          "name": "operator",
          "type": "address"
        }
      ],
      "name": "isApprovedForAll",
      "outputs": [
        {
          "internalType": "bool",
          "name": "",
          "type": "bool"
        }
      ],
      "stateMutability": "view",
      "type": "function"
    },
    {
      "inputs": [
        {
          "internalType": "uint256",
          "name": "ticketId",
          "type": "uint256"
        },
        {
          "internalType": "uint256",
          "name": "resalePrice",
          "type": "uint256"
        }
      ],
      "name": "listTicketForResale",
      "outputs": [],
      "stateMutability": "nonpayable",
      "type": "function"
    },
    {
      "inputs": [],
      "name": "name",
      "outputs": [
        {
          "internalType": "string",
          "name": "",
          "type": "string"
        }
      ],
      "stateMutability": "view",
      "type": "function"
    },
    {
      "inputs": [],
      "name": "owner",
      "outputs": [
        {
          "internalType": "address",
          "name": "",
          "type": "address"
        }
      ],
      "stateMutability": "view",
      "type": "function"
    },
    {
      "inputs": [
        {
          "internalType": "uint256",
          "name": "tokenId",
          "type": "uint256"
        }
      ],
      "name": "ownerOf",
      "outputs": [
        {
          "internalType": "address",
          "name": "",
          "type": "address"
        }
      ],
      "stateMutability": "view",
      "type": "function"
    },
    {
      "inputs": [
        {
          "internalType": "uint256",
          "name": "",
          "type": "uint256"
        }
      ],
      "name": "prizePools",
      "outputs": [
        {
          "internalType": "uint256",
          "name": "",
          "type": "uint256"
        }
      ],
      "stateMutability": "view",
      "type": "function"
    },
    {
      "inputs": [
        {
          "internalType": "uint256",
          "name": "eventId",
          "type": "uint256"
        },
        {
          "internalType": "string",
          "name": "teamName",
          "type": "string"
        },
        {
          "internalType": "address[]",
          "name": "members",
          "type": "address[]"
        }
      ],
      "name": "registerTeam",
      "outputs": [],
      "stateMutability": "nonpayable",
      "type": "function"
    },
    {
      "inputs": [],
      "name": "renounceOwnership",
      "outputs": [],
      "stateMutability": "nonpayable",
      "type": "function"
    },
    {
      "inputs": [
        {
          "internalType": "address",
          "name": "from",
          "type": "address"
        },
        {
          "internalType": "address",
          "name": "to",
          "type": "address"
        },
        {
          "internalType": "uint256",
          "name": "tokenId",
          "type": "uint256"
        }
      ],
      "name": "safeTransferFrom",
      "outputs": [],
      "stateMutability": "nonpayable",
      "type": "function"
    },
    {
      "inputs": [
        {
          "internalType": "address",
          "name": "from",
          "type": "address"
        },
        {
          "internalType": "address",
          "name": "to",
          "type": "address"
        },
        {
          "internalType": "uint256",
          "name": "tokenId",
          "type": "uint256"
        },
        {
          "internalType": "bytes",
          "name": "data",
          "type": "bytes"
        }
      ],
      "name": "safeTransferFrom",
      "outputs": [],
      "stateMutability": "nonpayable",
      "type": "function"
    },
    {
      "inputs": [
        {
          "internalType": "address",
          "name": "operator",
          "type": "address"
        },
        {
          "internalType": "bool",
          "name": "approved",
          "type": "bool"
        }
      ],
      "name": "setApprovalForAll",
      "outputs": [],
      "stateMutability": "nonpayable",
      "type": "function"
    },
    {
      "inputs": [
        {
          "internalType": "bytes4",
          "name": "interfaceId",
          "type": "bytes4"
        }
      ],
      "name": "supportsInterface",
      "outputs": [
        {
          "internalType": "bool",
          "name": "",
          "type": "bool"
        }
      ],
      "stateMutability": "view",
      "type": "function"
    },
    {
      "inputs": [],
      "name": "symbol",
      "outputs": [
        {
          "internalType": "string",
          "name": "",
          "type": "string"
        }
      ],
      "stateMutability": "view",
      "type": "function"
    },
    {
      "inputs": [
        {
          "internalType": "uint256",
          "name": "",
          "type": "uint256"
        }
      ],
      "name": "tickets",
      "outputs": [
        {
          "internalType": "uint256",
          "name": "id",
          "type": "uint256"
        },
        {
          "internalType": "uint256",
          "name": "eventId",
          "type": "uint256"
        },
        {
          "internalType": "address",
          "name": "owner",
          "type": "address"
        },
        {
          "internalType": "uint256",
          "name": "resalePrice",
          "type": "uint256"
        },
        {
          "internalType": "bool",
          "name": "forSale",
          "type": "bool"
        }
      ],
      "stateMutability": "view",
      "type": "function"
    },
    {
      "inputs": [
        {
          "internalType": "uint256",
          "name": "tokenId",
          "type": "uint256"
        }
      ],
      "name": "tokenURI",
      "outputs": [
        {
          "internalType": "string",
          "name": "",
          "type": "string"
        }
      ],
      "stateMutability": "view",
      "type": "function"
    },
    {
      "inputs": [
        {
          "internalType": "address",
          "name": "from",
          "type": "address"
        },
        {
          "internalType": "address",
          "name": "to",
          "type": "address"
        },
        {
          "internalType": "uint256",
          "name": "tokenId",
          "type": "uint256"
        }
      ],
      "name": "transferFrom",
      "outputs": [],
      "stateMutability": "nonpayable",
      "type": "function"
    },
    {
      "inputs": [
        {
          "internalType": "address",
          "name": "newOwner",
          "type": "address"
        }
      ],
      "name": "transferOwnership",
      "outputs": [],
      "stateMutability": "nonpayable",
      "type": "function"
    },
    {
      "inputs": [
        {
          "internalType": "uint256",
          "name": "eventId",
          "type": "uint256"
        }
      ],
      "name": "withdrawPrizePool",
      "outputs": [],
      "stateMutability": "nonpayable",
      "type": "function"
    }
  ],
  "bytecode": "0x608060405234801561001057600080fd5b50336040518060400160405280600e81526020017f4576656e745469636b65744e46540000000000000000000000000000000000008152506040518060400160405280600581526020017f45544e4654000000000000000000000000000000000000000000000000000000815250816000908161008d919061043d565b50806001908161009d919061043d565b505050600073ffffffffffffffffffffffffffffffffffffffff168173ffffffffffffffffffffffffffffffffffffffff16036101125760006040517f1e4fbdf70000000000000000000000000000000000000000000000000000000081526004016101099190610550565b60405180910390fd5b6101218161012760201b60201c565b5061056b565b6000600760009054906101000a900473ffffffffffffffffffffffffffffffffffffffff16905081600760006101000a81548173ffffffffffffffffffffffffffffffffffffffff021916908373ffffffffffffffffffffffffffffffffffffffff1602179055508173ffffffffffffffffffffffffffffffffffffffff168173ffffffffffffffffffffffffffffffffffffffff167f8be0079c531659141344cd1fd0a4f28419497f9722a3daafe3b4186f6b6457e060405160405180910390a35050565b600081519050919050565b7f4e487b7100000000000000000000000000000000000000000000000000000000600052604160045260246000fd5b7f4e487b7100000000000000000000000000000000000000000000000000000000600052602260045260246000fd5b6000600282049050600182168061026e57607f821691505b60208210810361028157610280610227565b5b50919050565b60008190508160005260206000209050919050565b60006020601f8301049050919050565b600082821b905092915050565b6000600883026102e97fffffffffffffffffffffffffffffffffffffffffffffffffffffffffffffffff826102ac565b6102f386836102ac565b95508019841693508086168417925050509392505050565b6000819050919050565b6000819050919050565b600061033a6103356103308461030b565b610315565b61030b565b9050919050565b6000819050919050565b6103548361031f565b61036861036082610341565b8484546102b9565b825550505050565b600090565b61037d610370565b61038881848461034b565b505050565b5b818110156103ac576103a1600082610375565b60018101905061038e565b5050565b601f8211156103f1576103c281610287565b6103cb8461029c565b810160208510156103da578190505b6103ee6103e68561029c565b83018261038d565b50505b505050565b600082821c905092915050565b6000610414600019846008026103f6565b1980831691505092915050565b600061042d8383610403565b9150826002028217905092915050565b610446826101ed565b67ffffffffffffffff81111561045f5761045e6101f8565b5b6104698254610256565b6104748282856103b0565b600060209050601f8311600181146104a75760008415610495578287015190505b61049f8582610421565b865550610507565b601f1984166104b586610287565b60005b828110156104dd578489015182556001820191506020850194506020810190506104b8565b868310156104fa57848901516104f6601f891682610403565b8355505b6001600288020188555050505b505050505050565b600073ffffffffffffffffffffffffffffffffffffffff82169050919050565b600061053a8261050f565b9050919050565b61054a8161052f565b82525050565b60006020820190506105656000830184610541565b92915050565b614ff78061057a6000396000f3fe6080604052600436106101cd5760003560e01c80636352211e116100f7578063b88d4fde11610095578063e0bcea8d11610064578063e0bcea8d14610682578063e985e9c51461069e578063eddad394146106db578063f2fde38b14610718576101cd565b8063b88d4fde146105ca578063c2e93021146105f3578063c3b4ff381461061c578063c87b56dd14610645576101cd565b8063715018a6116100d1578063715018a6146105345780638da5cb5b1461054b57806395d89b4114610576578063a22cb465146105a1576101cd565b80636352211e1461049e57806367dd74ca146104db57806370a08231146104f7576101cd565b806323b872dd1161016f57806350b447121161013e57806350b44712146103cc5780635137b2121461040d5780636053b0ef1461043857806362a0fef614610461576101cd565b806323b872dd14610328578063384759341461035157806342842e0e1461037a5780634b399a30146103a3576101cd565b8063081812fc116101ab578063081812fc14610263578063095ea7b3146102a05780630b791430146102c95780631d9c5d5c1461030c576101cd565b806301ffc9a7146101d257806305e1b1151461020f57806306fdde0314610238575b600080fd5b3480156101de57600080fd5b506101f960048036038101906101f491906136fb565b610741565b6040516102069190613743565b60405180910390f35b34801561021b57600080fd5b5061023660048036038101906102319190613794565b6107a2565b005b34801561024457600080fd5b5061024d61094b565b60405161025a9190613851565b60405180910390f35b34801561026f57600080fd5b5061028a60048036038101906102859190613794565b6109dd565b60405161029791906138b4565b60405180910390f35b3480156102ac57600080fd5b506102c760048036038101906102c291906138fb565b6109f9565b005b3480156102d557600080fd5b506102f060048036038101906102eb9190613794565b610a0f565b60405161030397969594939291906139c1565b60405180910390f35b61032660048036038101906103219190613794565b610b06565b005b34801561033457600080fd5b5061034f600480360381019061034a9190613a37565b610d1f565b005b34801561035d57600080fd5b5061037860048036038101906103739190613794565b610e21565b005b34801561038657600080fd5b506103a1600480360381019061039c9190613a37565b610f2a565b005b3480156103af57600080fd5b506103ca60048036038101906103c59190613a8a565b610f4a565b005b3480156103d857600080fd5b506103f360048036038101906103ee9190613794565b6111c5565b604051610404959493929190613aca565b60405180910390f35b34801561041957600080fd5b50610422611228565b60405161042f9190613b1d565b60405180910390f35b34801561044457600080fd5b5061045f600480360381019061045a9190613a8a565b611232565b005b34801561046d57600080fd5b5061048860048036038101906104839190613a8a565b611366565b6040516104959190613851565b60405180910390f35b3480156104aa57600080fd5b506104c560048036038101906104c09190613794565b611429565b6040516104d291906138b4565b60405180910390f35b6104f560048036038101906104f09190613794565b61143b565b005b34801561050357600080fd5b5061051e60048036038101906105199190613b38565b611799565b60405161052b9190613b1d565b60405180910390f35b34801561054057600080fd5b50610549611853565b005b34801561055757600080fd5b50610560611867565b60405161056d91906138b4565b60405180910390f35b34801561058257600080fd5b5061058b611891565b6040516105989190613851565b60405180910390f35b3480156105ad57600080fd5b506105c860048036038101906105c39190613b91565b611923565b005b3480156105d657600080fd5b506105f160048036038101906105ec9190613d06565b611939565b005b3480156105ff57600080fd5b5061061a60048036038101906106159190613e4f565b61195e565b005b34801561062857600080fd5b50610643600480360381019061063e9190613f9a565b611b2f565b005b34801561065157600080fd5b5061066c60048036038101906106679190613794565b611d2c565b6040516106799190613851565b60405180910390f35b61069c60048036038101906106979190613794565b611e3f565b005b3480156106aa57600080fd5b506106c560048036038101906106c09190614025565b611f99565b6040516106d29190613743565b60405180910390f35b3480156106e757600080fd5b5061070260048036038101906106fd9190613794565b61202d565b60405161070f9190613b1d565b60405180910390f35b34801561072457600080fd5b5061073f600480360381019061073a9190613b38565b612045565b005b6000634906490660e01b7bffffffffffffffffffffffffffffffffffffffffffffffffffffffff1916827bffffffffffffffffffffffffffffffffffffffffffffffffffffffff1916148061079b575061079a826120cb565b5b9050919050565b6002808111156107b5576107b461394a565b5b600a600083815260200190815260200160002060020160009054906101000a900460ff1660028111156107eb576107ea61394a565b5b1461082b576040517f08c379a0000000000000000000000000000000000000000000000000000000008152600401610822906140b1565b60405180910390fd5b3373ffffffffffffffffffffffffffffffffffffffff16600a600083815260200190815260200160002060060160009054906101000a900473ffffffffffffffffffffffffffffffffffffffff1673ffffffffffffffffffffffffffffffffffffffff16146108cf576040517f08c379a00000000000000000000000000000000000000000000000000000000081526004016108c69061411d565b60405180910390fd5b6000600d60008381526020019081526020016000205490506000600d6000848152602001908152602001600020819055503373ffffffffffffffffffffffffffffffffffffffff166108fc829081150290604051600060405180830381858888f19350505050158015610946573d6000803e3d6000fd5b505050565b60606000805461095a9061416c565b80601f01602080910402602001604051908101604052809291908181526020018280546109869061416c565b80156109d35780601f106109a8576101008083540402835291602001916109d3565b820191906000526020600020905b8154815290600101906020018083116109b657829003601f168201915b5050505050905090565b60006109e8826121ad565b506109f282612235565b9050919050565b610a0b8282610a06612272565b61227a565b5050565b600a602052806000526040600020600091509050806000015490806001018054610a389061416c565b80601f0160208091040260200160405190810160405280929190818152602001828054610a649061416c565b8015610ab15780601f10610a8657610100808354040283529160200191610ab1565b820191906000526020600020905b815481529060010190602001808311610a9457829003601f168201915b5050505050908060020160009054906101000a900460ff16908060030154908060040154908060050154908060060160009054906101000a900473ffffffffffffffffffffffffffffffffffffffff16905087565b610b0f8161228c565b610b4e576040517f08c379a0000000000000000000000000000000000000000000000000000000008152600401610b45906141e9565b60405180910390fd5b6000600b600083815260200190815260200160002090508060040160009054906101000a900460ff16610bb6576040517f08c379a0000000000000000000000000000000000000000000000000000000008152600401610bad90614255565b60405180910390fd5b80600301543414610bfc576040517f08c379a0000000000000000000000000000000000000000000000000000000008152600401610bf3906142c1565b60405180910390fd5b60008160020160009054906101000a900473ffffffffffffffffffffffffffffffffffffffff169050338260020160006101000a81548173ffffffffffffffffffffffffffffffffffffffff021916908373ffffffffffffffffffffffffffffffffffffffff16021790555060008260040160006101000a81548160ff02191690831515021790555060008260030181905550610c9a8133856122af565b8073ffffffffffffffffffffffffffffffffffffffff166108fc349081150290604051600060405180830381858888f19350505050158015610ce0573d6000803e3d6000fd5b507fc0e2772be7cecf9477b91086d97e2d0d8008fe6a87446496065bdfef589adca18333604051610d129291906142e1565b60405180910390a1505050565b600073ffffffffffffffffffffffffffffffffffffffff168273ffffffffffffffffffffffffffffffffffffffff1603610d915760006040517f64a0ae92000000000000000000000000000000000000000000000000000000008152600401610d8891906138b4565b60405180910390fd5b6000610da58383610da0612272565b61241c565b90508373ffffffffffffffffffffffffffffffffffffffff168173ffffffffffffffffffffffffffffffffffffffff1614610e1b578382826040517f64283d7b000000000000000000000000000000000000000000000000000000008152600401610e129392919061430a565b60405180910390fd5b50505050565b3373ffffffffffffffffffffffffffffffffffffffff16610e4182611429565b73ffffffffffffffffffffffffffffffffffffffff1614610e97576040517f08c379a0000000000000000000000000000000000000000000000000000000008152600401610e8e906143b3565b60405180910390fd5b6000600b600083815260200190815260200160002090508060040160009054906101000a900460ff16610eff576040517f08c379a0000000000000000000000000000000000000000000000000000000008152600401610ef69061441f565b60405180910390fd5b60008160040160006101000a81548160ff021916908315150217905550600081600301819055505050565b610f4583838360405180602001604052806000815250611939565b505050565b600280811115610f5d57610f5c61394a565b5b600a600084815260200190815260200160002060020160009054906101000a900460ff166002811115610f9357610f9261394a565b5b14610fd3576040517f08c379a0000000000000000000000000000000000000000000000000000000008152600401610fca906140b1565b60405180910390fd5b3373ffffffffffffffffffffffffffffffffffffffff16600a600084815260200190815260200160002060060160009054906101000a900473ffffffffffffffffffffffffffffffffffffffff1673ffffffffffffffffffffffffffffffffffffffff1614611077576040517f08c379a000000000000000000000000000000000000000000000000000000000815260040161106e9061448b565b60405180910390fd5b600c60008381526020019081526020016000208054905081106110cf576040517f08c379a00000000000000000000000000000000000000000000000000000000081526004016110c6906144f7565b60405180910390fd5b6000600c600084815260200190815260200160002082815481106110f6576110f5614517565b5b906000526020600020906002020190506000600d60008581526020019081526020016000205490506000600d6000868152602001908152602001600020819055508160010160008154811061114e5761114d614517565b5b9060005260206000200160009054906101000a900473ffffffffffffffffffffffffffffffffffffffff1673ffffffffffffffffffffffffffffffffffffffff166108fc829081150290604051600060405180830381858888f193505050501580156111be573d6000803e3d6000fd5b5050505050565b600b6020528060005260406000206000915090508060000154908060010154908060020160009054906101000a900473ffffffffffffffffffffffffffffffffffffffff16908060030154908060040160009054906101000a900460ff16905085565b6000600854905090565b3373ffffffffffffffffffffffffffffffffffffffff1661125283611429565b73ffffffffffffffffffffffffffffffffffffffff16146112a8576040517f08c379a000000000000000000000000000000000000000000000000000000000815260040161129f906143b3565b60405180910390fd5b600081116112eb576040517f08c379a00000000000000000000000000000000000000000000000000000000081526004016112e2906145b8565b60405180910390fd5b6000600b6000848152602001908152602001600020905081816003018190555060018160040160006101000a81548160ff0219169083151502179055507f2d8cbebfd87cb19b7bed949f9c8d5a80d939133966ef331ac575d69160ea046583836040516113599291906145d8565b60405180910390a1505050565b600c602052816000526040600020818154811061138257600080fd5b9060005260206000209060020201600091509150508060000180546113a69061416c565b80601f01602080910402602001604051908101604052809291908181526020018280546113d29061416c565b801561141f5780601f106113f45761010080835404028352916020019161141f565b820191906000526020600020905b81548152906001019060200180831161140257829003601f168201915b5050505050905081565b6000611434826121ad565b9050919050565b6000600a600083815260200190815260200160002090506000816000015403611499576040517f08c379a00000000000000000000000000000000000000000000000000000000081526004016114909061464d565b60405180910390fd5b80600401548160050154106114e3576040517f08c379a00000000000000000000000000000000000000000000000000000000081526004016114da906146b9565b60405180910390fd5b80600301543414611529576040517f08c379a0000000000000000000000000000000000000000000000000000000008152600401611520906142c1565b60405180910390fd5b6009600081548092919061153c90614708565b9190505550600060095490506040518060a001604052808281526020018481526020013373ffffffffffffffffffffffffffffffffffffffff1681526020016000815260200160001515815250600b6000838152602001908152602001600020600082015181600001556020820151816001015560408201518160020160006101000a81548173ffffffffffffffffffffffffffffffffffffffff021916908373ffffffffffffffffffffffffffffffffffffffff1602179055506060820151816003015560808201518160040160006101000a81548160ff02191690831515021790555090505081600501600081548092919061163990614708565b9190505550611648338261256a565b60006116e1828585600101805461165e9061416c565b80601f016020809104026020016040519081016040528092919081815260200182805461168a9061416c565b80156116d75780601f106116ac576101008083540402835291602001916116d7565b820191906000526020600020905b8154815290600101906020018083116116ba57829003601f168201915b5050505050612663565b90506116ed82826126eb565b8260060160009054906101000a900473ffffffffffffffffffffffffffffffffffffffff1673ffffffffffffffffffffffffffffffffffffffff166108fc349081150290604051600060405180830381858888f19350505050158015611757573d6000803e3d6000fd5b507f94c5953e15f54d38b82a662bdd5739fc91af3a23d3ef7e67269dfaeee71a813c82853360405161178b93929190614750565b60405180910390a150505050565b60008073ffffffffffffffffffffffffffffffffffffffff168273ffffffffffffffffffffffffffffffffffffffff160361180c5760006040517f89c62b6400000000000000000000000000000000000000000000000000000000815260040161180391906138b4565b60405180910390fd5b600360008373ffffffffffffffffffffffffffffffffffffffff1673ffffffffffffffffffffffffffffffffffffffff168152602001908152602001600020549050919050565b61185b612747565b61186560006127ce565b565b6000600760009054906101000a900473ffffffffffffffffffffffffffffffffffffffff16905090565b6060600180546118a09061416c565b80601f01602080910402602001604051908101604052809291908181526020018280546118cc9061416c565b80156119195780601f106118ee57610100808354040283529160200191611919565b820191906000526020600020905b8154815290600101906020018083116118fc57829003601f168201915b5050505050905090565b61193561192e612272565b8383612894565b5050565b611944848484610d1f565b61195861194f612272565b85858585612a03565b50505050565b600081116119a1576040517f08c379a0000000000000000000000000000000000000000000000000000000008152600401611998906147d3565b60405180910390fd5b600860008154809291906119b490614708565b9190505550600060085490506040518060e001604052808281526020018681526020018560028111156119ea576119e961394a565b5b8152602001848152602001838152602001600081526020013373ffffffffffffffffffffffffffffffffffffffff16815250600a6000838152602001908152602001600020600082015181600001556020820151816001019081611a4e919061499f565b5060408201518160020160006101000a81548160ff02191690836002811115611a7a57611a7961394a565b5b0217905550606082015181600301556080820151816004015560a0820151816005015560c08201518160060160006101000a81548173ffffffffffffffffffffffffffffffffffffffff021916908373ffffffffffffffffffffffffffffffffffffffff1602179055509050507fde958b56325d663bb83f2836d1b9099bd2fe7c65ca1b7d93a97619fcb475240c818686868633604051611b2096959493929190614a71565b60405180910390a15050505050565b600280811115611b4257611b4161394a565b5b600a600085815260200190815260200160002060020160009054906101000a900460ff166002811115611b7857611b7761394a565b5b14611bb8576040517f08c379a0000000000000000000000000000000000000000000000000000000008152600401611baf90614b25565b60405180910390fd5b600073ffffffffffffffffffffffffffffffffffffffff16600a600085815260200190815260200160002060060160009054906101000a900473ffffffffffffffffffffffffffffffffffffffff1673ffffffffffffffffffffffffffffffffffffffff1603611c5d576040517f08c379a0000000000000000000000000000000000000000000000000000000008152600401611c549061464d565b60405180910390fd5b6000815111611ca1576040517f08c379a0000000000000000000000000000000000000000000000000000000008152600401611c9890614b91565b60405180910390fd5b600c600084815260200190815260200160002060405180604001604052808481526020018381525090806001815401808255809150506001900390600052602060002090600202016000909190919091506000820151816000019081611d07919061499f565b506020820151816001019080519060200190611d249291906135e8565b505050505050565b6060611d37826121ad565b506000600660008481526020019081526020016000208054611d589061416c565b80601f0160208091040260200160405190810160405280929190818152602001828054611d849061416c565b8015611dd15780601f10611da657610100808354040283529160200191611dd1565b820191906000526020600020905b815481529060010190602001808311611db457829003601f168201915b505050505090506000611de2612bb4565b90506000815103611df7578192505050611e3a565b600082511115611e2c578082604051602001611e14929190614bed565b60405160208183030381529060405292505050611e3a565b611e3584612bcb565b925050505b919050565b600280811115611e5257611e5161394a565b5b600a600083815260200190815260200160002060020160009054906101000a900460ff166002811115611e8857611e8761394a565b5b14611ec8576040517f08c379a0000000000000000000000000000000000000000000000000000000008152600401611ebf906140b1565b60405180910390fd5b3373ffffffffffffffffffffffffffffffffffffffff16600a600083815260200190815260200160002060060160009054906101000a900473ffffffffffffffffffffffffffffffffffffffff1673ffffffffffffffffffffffffffffffffffffffff1614611f6c576040517f08c379a0000000000000000000000000000000000000000000000000000000008152600401611f6390614c5d565b60405180910390fd5b34600d60008381526020019081526020016000206000828254611f8f9190614c7d565b9250508190555050565b6000600560008473ffffffffffffffffffffffffffffffffffffffff1673ffffffffffffffffffffffffffffffffffffffff16815260200190815260200160002060008373ffffffffffffffffffffffffffffffffffffffff1673ffffffffffffffffffffffffffffffffffffffff16815260200190815260200160002060009054906101000a900460ff16905092915050565b600d6020528060005260406000206000915090505481565b61204d612747565b600073ffffffffffffffffffffffffffffffffffffffff168173ffffffffffffffffffffffffffffffffffffffff16036120bf5760006040517f1e4fbdf70000000000000000000000000000000000000000000000000000000081526004016120b691906138b4565b60405180910390fd5b6120c8816127ce565b50565b60007f80ac58cd000000000000000000000000000000000000000000000000000000007bffffffffffffffffffffffffffffffffffffffffffffffffffffffff1916827bffffffffffffffffffffffffffffffffffffffffffffffffffffffff1916148061219657507f5b5e139f000000000000000000000000000000000000000000000000000000007bffffffffffffffffffffffffffffffffffffffffffffffffffffffff1916827bffffffffffffffffffffffffffffffffffffffffffffffffffffffff1916145b806121a657506121a582612c34565b5b9050919050565b6000806121b983612c9e565b9050600073ffffffffffffffffffffffffffffffffffffffff168173ffffffffffffffffffffffffffffffffffffffff160361222c57826040517f7e2732890000000000000000000000000000000000000000000000000000000081526004016122239190613b1d565b60405180910390fd5b80915050919050565b60006004600083815260200190815260200160002060009054906101000a900473ffffffffffffffffffffffffffffffffffffffff169050919050565b600033905090565b6122878383836001612cdb565b505050565b600080600b60008481526020019081526020016000206000015414159050919050565b600073ffffffffffffffffffffffffffffffffffffffff168273ffffffffffffffffffffffffffffffffffffffff16036123215760006040517f64a0ae9200000000000000000000000000000000000000000000000000000000815260040161231891906138b4565b60405180910390fd5b600061232f8383600061241c565b9050600073ffffffffffffffffffffffffffffffffffffffff168173ffffffffffffffffffffffffffffffffffffffff16036123a257816040517f7e2732890000000000000000000000000000000000000000000000000000000081526004016123999190613b1d565b60405180910390fd5b8373ffffffffffffffffffffffffffffffffffffffff168173ffffffffffffffffffffffffffffffffffffffff1614612416578382826040517f64283d7b00000000000000000000000000000000000000000000000000000000815260040161240d9392919061430a565b60405180910390fd5b50505050565b60008061242a858585612ea0565b9050600073ffffffffffffffffffffffffffffffffffffffff168173ffffffffffffffffffffffffffffffffffffffff16141580156124965750600073ffffffffffffffffffffffffffffffffffffffff168573ffffffffffffffffffffffffffffffffffffffff1614155b80156124b957506000600b60008681526020019081526020016000206000015414155b1561255f5784600b600086815260200190815260200160002060020160006101000a81548173ffffffffffffffffffffffffffffffffffffffff021916908373ffffffffffffffffffffffffffffffffffffffff1602179055506000600b600086815260200190815260200160002060040160006101000a81548160ff0219169083151502179055506000600b6000868152602001908152602001600020600301819055505b809150509392505050565b600073ffffffffffffffffffffffffffffffffffffffff168273ffffffffffffffffffffffffffffffffffffffff16036125dc5760006040517f64a0ae920000000000000000000000000000000000000000000000000000000081526004016125d391906138b4565b60405180910390fd5b60006125ea8383600061241c565b9050600073ffffffffffffffffffffffffffffffffffffffff168173ffffffffffffffffffffffffffffffffffffffff161461265e5760006040517f73c6ac6e00000000000000000000000000000000000000000000000000000000815260040161265591906138b4565b60405180910390fd5b505050565b606060006040518060400160405280602081526020017f68747470733a2f2f6170692e6578616d706c652e636f6d2f7469636b6574732f815250905060006126aa866130ba565b905060006126b7866130ba565b9050828282876040516020016126d09493929190614d49565b60405160208183030381529060405293505050509392505050565b8060066000848152602001908152602001600020908161270b919061499f565b507ff8e1a15aba9398e019f0b49df1a4fde98ee17ae345cb5f6b5e2c27f5033e8ce78260405161273b9190613b1d565b60405180910390a15050565b61274f612272565b73ffffffffffffffffffffffffffffffffffffffff1661276d611867565b73ffffffffffffffffffffffffffffffffffffffff16146127cc57612790612272565b6040517f118cdaa70000000000000000000000000000000000000000000000000000000081526004016127c391906138b4565b60405180910390fd5b565b6000600760009054906101000a900473ffffffffffffffffffffffffffffffffffffffff16905081600760006101000a81548173ffffffffffffffffffffffffffffffffffffffff021916908373ffffffffffffffffffffffffffffffffffffffff1602179055508173ffffffffffffffffffffffffffffffffffffffff168173ffffffffffffffffffffffffffffffffffffffff167f8be0079c531659141344cd1fd0a4f28419497f9722a3daafe3b4186f6b6457e060405160405180910390a35050565b600073ffffffffffffffffffffffffffffffffffffffff168273ffffffffffffffffffffffffffffffffffffffff160361290557816040517f5b08ba180000000000000000000000000000000000000000000000000000000081526004016128fc91906138b4565b60405180910390fd5b80600560008573ffffffffffffffffffffffffffffffffffffffff1673ffffffffffffffffffffffffffffffffffffffff16815260200190815260200160002060008473ffffffffffffffffffffffffffffffffffffffff1673ffffffffffffffffffffffffffffffffffffffff16815260200190815260200160002060006101000a81548160ff0219169083151502179055508173ffffffffffffffffffffffffffffffffffffffff168373ffffffffffffffffffffffffffffffffffffffff167f17307eab39ab6107e8899845ad3d59bd9653f200f220920489ca2b5937696c31836040516129f69190613743565b60405180910390a3505050565b60008373ffffffffffffffffffffffffffffffffffffffff163b1115612bad578273ffffffffffffffffffffffffffffffffffffffff1663150b7a02868685856040518563ffffffff1660e01b8152600401612a629493929190614df2565b6020604051808303816000875af1925050508015612a9e57506040513d601f19601f82011682018060405250810190612a9b9190614e53565b60015b612b22573d8060008114612ace576040519150601f19603f3d011682016040523d82523d6000602084013e612ad3565b606091505b506000815103612b1a57836040517f64a0ae92000000000000000000000000000000000000000000000000000000008152600401612b1191906138b4565b60405180910390fd5b805181602001fd5b63150b7a0260e01b7bffffffffffffffffffffffffffffffffffffffffffffffffffffffff1916817bffffffffffffffffffffffffffffffffffffffffffffffffffffffff191614612bab57836040517f64a0ae92000000000000000000000000000000000000000000000000000000008152600401612ba291906138b4565b60405180910390fd5b505b5050505050565b606060405180602001604052806000815250905090565b6060612bd6826121ad565b506000612be1612bb4565b90506000815111612c015760405180602001604052806000815250612c2c565b80612c0b84613242565b604051602001612c1c929190614bed565b6040516020818303038152906040525b915050919050565b60007f01ffc9a7000000000000000000000000000000000000000000000000000000007bffffffffffffffffffffffffffffffffffffffffffffffffffffffff1916827bffffffffffffffffffffffffffffffffffffffffffffffffffffffff1916149050919050565b60006002600083815260200190815260200160002060009054906101000a900473ffffffffffffffffffffffffffffffffffffffff169050919050565b8080612d145750600073ffffffffffffffffffffffffffffffffffffffff168273ffffffffffffffffffffffffffffffffffffffff1614155b15612e48576000612d24846121ad565b9050600073ffffffffffffffffffffffffffffffffffffffff168373ffffffffffffffffffffffffffffffffffffffff1614158015612d8f57508273ffffffffffffffffffffffffffffffffffffffff168173ffffffffffffffffffffffffffffffffffffffff1614155b8015612da25750612da08184611f99565b155b15612de457826040517fa9fbf51f000000000000000000000000000000000000000000000000000000008152600401612ddb91906138b4565b60405180910390fd5b8115612e4657838573ffffffffffffffffffffffffffffffffffffffff168273ffffffffffffffffffffffffffffffffffffffff167f8c5be1e5ebec7d5bd14f71427d1e84f3dd0314c0f7b2291e5b200ac8c7c3b92560405160405180910390a45b505b836004600085815260200190815260200160002060006101000a81548173ffffffffffffffffffffffffffffffffffffffff021916908373ffffffffffffffffffffffffffffffffffffffff16021790555050505050565b600080612eac84612c9e565b9050600073ffffffffffffffffffffffffffffffffffffffff168373ffffffffffffffffffffffffffffffffffffffff1614612eee57612eed818486613310565b5b600073ffffffffffffffffffffffffffffffffffffffff168173ffffffffffffffffffffffffffffffffffffffff1614612f7f57612f30600085600080612cdb565b6001600360008373ffffffffffffffffffffffffffffffffffffffff1673ffffffffffffffffffffffffffffffffffffffff168152602001908152602001600020600082825403925050819055505b600073ffffffffffffffffffffffffffffffffffffffff168573ffffffffffffffffffffffffffffffffffffffff1614613002576001600360008773ffffffffffffffffffffffffffffffffffffffff1673ffffffffffffffffffffffffffffffffffffffff168152602001908152602001600020600082825401925050819055505b846002600086815260200190815260200160002060006101000a81548173ffffffffffffffffffffffffffffffffffffffff021916908373ffffffffffffffffffffffffffffffffffffffff160217905550838573ffffffffffffffffffffffffffffffffffffffff168273ffffffffffffffffffffffffffffffffffffffff167fddf252ad1be2c89b69c2b068fc378daa952ba7f163c4a11628f55a4df523b3ef60405160405180910390a4809150509392505050565b606060008203613101576040518060400160405280600181526020017f3000000000000000000000000000000000000000000000000000000000000000815250905061323d565b600082905060005b6000821461313357808061311c90614708565b915050600a8261312c9190614eaf565b9150613109565b60008167ffffffffffffffff81111561314f5761314e613bdb565b5b6040519080825280601f01601f1916602001820160405280156131815781602001600182028036833780820191505090505b50905060008290505b600086146132355760018161319f9190614ee0565b90506000600a80886131b19190614eaf565b6131bb9190614f14565b876131c69190614ee0565b60306131d29190614f63565b905060008160f81b9050808484815181106131f0576131ef614517565b5b60200101907effffffffffffffffffffffffffffffffffffffffffffffffffffffffffffff1916908160001a905350600a8861322c9190614eaf565b9750505061318a565b819450505050505b919050565b606060006001613251846133d4565b01905060008167ffffffffffffffff8111156132705761326f613bdb565b5b6040519080825280601f01601f1916602001820160405280156132a25781602001600182028036833780820191505090505b509050600082602001820190505b600115613305578080600190039150507f3031323334353637383961626364656600000000000000000000000000000000600a86061a8153600a85816132f9576132f8614e80565b5b049450600085036132b0575b819350505050919050565b61331b838383613527565b6133cf57600073ffffffffffffffffffffffffffffffffffffffff168373ffffffffffffffffffffffffffffffffffffffff160361339057806040517f7e2732890000000000000000000000000000000000000000000000000000000081526004016133879190613b1d565b60405180910390fd5b81816040517f177e802f0000000000000000000000000000000000000000000000000000000081526004016133c6929190614f98565b60405180910390fd5b505050565b600080600090507a184f03e93ff9f4daa797ed6e38ed64bf6a1f0100000000000000008310613432577a184f03e93ff9f4daa797ed6e38ed64bf6a1f010000000000000000838161342857613427614e80565b5b0492506040810190505b6d04ee2d6d415b85acef8100000000831061346f576d04ee2d6d415b85acef8100000000838161346557613464614e80565b5b0492506020810190505b662386f26fc10000831061349e57662386f26fc10000838161349457613493614e80565b5b0492506010810190505b6305f5e10083106134c7576305f5e10083816134bd576134bc614e80565b5b0492506008810190505b61271083106134ec5761271083816134e2576134e1614e80565b5b0492506004810190505b6064831061350f576064838161350557613504614e80565b5b0492506002810190505b600a831061351e576001810190505b80915050919050565b60008073ffffffffffffffffffffffffffffffffffffffff168373ffffffffffffffffffffffffffffffffffffffff16141580156135df57508273ffffffffffffffffffffffffffffffffffffffff168473ffffffffffffffffffffffffffffffffffffffff1614806135a0575061359f8484611f99565b5b806135de57508273ffffffffffffffffffffffffffffffffffffffff166135c683612235565b73ffffffffffffffffffffffffffffffffffffffff16145b5b90509392505050565b828054828255906000526020600020908101928215613661579160200282015b828111156136605782518260006101000a81548173ffffffffffffffffffffffffffffffffffffffff021916908373ffffffffffffffffffffffffffffffffffffffff16021790555091602001919060010190613608565b5b50905061366e9190613672565b5090565b5b8082111561368b576000816000905550600101613673565b5090565b6000604051905090565b600080fd5b600080fd5b60007fffffffff0000000000000000000000000000000000000000000000000000000082169050919050565b6136d8816136a3565b81146136e357600080fd5b50565b6000813590506136f5816136cf565b92915050565b60006020828403121561371157613710613699565b5b600061371f848285016136e6565b91505092915050565b60008115159050919050565b61373d81613728565b82525050565b60006020820190506137586000830184613734565b92915050565b6000819050919050565b6137718161375e565b811461377c57600080fd5b50565b60008135905061378e81613768565b92915050565b6000602082840312156137aa576137a9613699565b5b60006137b88482850161377f565b91505092915050565b600081519050919050565b600082825260208201905092915050565b60005b838110156137fb5780820151818401526020810190506137e0565b60008484015250505050565b6000601f19601f8301169050919050565b6000613823826137c1565b61382d81856137cc565b935061383d8185602086016137dd565b61384681613807565b840191505092915050565b6000602082019050818103600083015261386b8184613818565b905092915050565b600073ffffffffffffffffffffffffffffffffffffffff82169050919050565b600061389e82613873565b9050919050565b6138ae81613893565b82525050565b60006020820190506138c960008301846138a5565b92915050565b6138d881613893565b81146138e357600080fd5b50565b6000813590506138f5816138cf565b92915050565b6000806040838503121561391257613911613699565b5b6000613920858286016138e6565b92505060206139318582860161377f565b9150509250929050565b6139448161375e565b82525050565b7f4e487b7100000000000000000000000000000000000000000000000000000000600052602160045260246000fd5b6003811061398a5761398961394a565b5b50565b600081905061399b82613979565b919050565b60006139ab8261398d565b9050919050565b6139bb816139a0565b82525050565b600060e0820190506139d6600083018a61393b565b81810360208301526139e88189613818565b90506139f760408301886139b2565b613a04606083018761393b565b613a11608083018661393b565b613a1e60a083018561393b565b613a2b60c08301846138a5565b98975050505050505050565b600080600060608486031215613a5057613a4f613699565b5b6000613a5e868287016138e6565b9350506020613a6f868287016138e6565b9250506040613a808682870161377f565b9150509250925092565b60008060408385031215613aa157613aa0613699565b5b6000613aaf8582860161377f565b9250506020613ac08582860161377f565b9150509250929050565b600060a082019050613adf600083018861393b565b613aec602083018761393b565b613af960408301866138a5565b613b06606083018561393b565b613b136080830184613734565b9695505050505050565b6000602082019050613b32600083018461393b565b92915050565b600060208284031215613b4e57613b4d613699565b5b6000613b5c848285016138e6565b91505092915050565b613b6e81613728565b8114613b7957600080fd5b50565b600081359050613b8b81613b65565b92915050565b60008060408385031215613ba857613ba7613699565b5b6000613bb6858286016138e6565b9250506020613bc785828601613b7c565b9150509250929050565b600080fd5b600080fd5b7f4e487b7100000000000000000000000000000000000000000000000000000000600052604160045260246000fd5b613c1382613807565b810181811067ffffffffffffffff82111715613c3257613c31613bdb565b5b80604052505050565b6000613c4561368f565b9050613c518282613c0a565b919050565b600067ffffffffffffffff821115613c7157613c70613bdb565b5b613c7a82613807565b9050602081019050919050565b82818337600083830152505050565b6000613ca9613ca484613c56565b613c3b565b905082815260208101848484011115613cc557613cc4613bd6565b5b613cd0848285613c87565b509392505050565b600082601f830112613ced57613cec613bd1565b5b8135613cfd848260208601613c96565b91505092915050565b60008060008060808587031215613d2057613d1f613699565b5b6000613d2e878288016138e6565b9450506020613d3f878288016138e6565b9350506040613d508782880161377f565b925050606085013567ffffffffffffffff811115613d7157613d7061369e565b5b613d7d87828801613cd8565b91505092959194509250565b600067ffffffffffffffff821115613da457613da3613bdb565b5b613dad82613807565b9050602081019050919050565b6000613dcd613dc884613d89565b613c3b565b905082815260208101848484011115613de957613de8613bd6565b5b613df4848285613c87565b509392505050565b600082601f830112613e1157613e10613bd1565b5b8135613e21848260208601613dba565b91505092915050565b60038110613e3757600080fd5b50565b600081359050613e4981613e2a565b92915050565b60008060008060808587031215613e6957613e68613699565b5b600085013567ffffffffffffffff811115613e8757613e8661369e565b5b613e9387828801613dfc565b9450506020613ea487828801613e3a565b9350506040613eb58782880161377f565b9250506060613ec68782880161377f565b91505092959194509250565b600067ffffffffffffffff821115613eed57613eec613bdb565b5b602082029050602081019050919050565b600080fd5b6000613f16613f1184613ed2565b613c3b565b90508083825260208201905060208402830185811115613f3957613f38613efe565b5b835b81811015613f625780613f4e88826138e6565b845260208401935050602081019050613f3b565b5050509392505050565b600082601f830112613f8157613f80613bd1565b5b8135613f91848260208601613f03565b91505092915050565b600080600060608486031215613fb357613fb2613699565b5b6000613fc18682870161377f565b935050602084013567ffffffffffffffff811115613fe257613fe161369e565b5b613fee86828701613dfc565b925050604084013567ffffffffffffffff81111561400f5761400e61369e565b5b61401b86828701613f6c565b9150509250925092565b6000806040838503121561403c5761403b613699565b5b600061404a858286016138e6565b925050602061405b858286016138e6565b9150509250929050565b7f4f6e6c7920666f72206861636b6174686f6e7300000000000000000000000000600082015250565b600061409b6013836137cc565b91506140a682614065565b602082019050919050565b600060208201905081810360008301526140ca8161408e565b9050919050565b7f4f6e6c79206f7267616e697a65722063616e2077697468647261770000000000600082015250565b6000614107601b836137cc565b9150614112826140d1565b602082019050919050565b60006020820190508181036000830152614136816140fa565b9050919050565b7f4e487b7100000000000000000000000000000000000000000000000000000000600052602260045260246000fd5b6000600282049050600182168061418457607f821691505b6020821081036141975761419661413d565b5b50919050565b7f5469636b657420646f6573206e6f742065786973740000000000000000000000600082015250565b60006141d36015836137cc565b91506141de8261419d565b602082019050919050565b60006020820190508181036000830152614202816141c6565b9050919050565b7f5469636b6574206973206e6f7420666f722073616c6500000000000000000000600082015250565b600061423f6016836137cc565b915061424a82614209565b602082019050919050565b6000602082019050818103600083015261426e81614232565b9050919050565b7f496e636f7272656374207061796d656e7420616d6f756e740000000000000000600082015250565b60006142ab6018836137cc565b91506142b682614275565b602082019050919050565b600060208201905081810360008301526142da8161429e565b9050919050565b60006040820190506142f6600083018561393b565b61430360208301846138a5565b9392505050565b600060608201905061431f60008301866138a5565b61432c602083018561393b565b61433960408301846138a5565b949350505050565b7f596f7520617265206e6f7420746865206f776e6572206f66207468697320746960008201527f636b657400000000000000000000000000000000000000000000000000000000602082015250565b600061439d6024836137cc565b91506143a882614341565b604082019050919050565b600060208201905081810360008301526143cc81614390565b9050919050565b7f5469636b6574206973206e6f74206c697374656420666f7220726573616c6500600082015250565b6000614409601f836137cc565b9150614414826143d3565b602082019050919050565b60006020820190508181036000830152614438816143fc565b9050919050565b7f4f6e6c79206f7267616e697a65722063616e2061776172640000000000000000600082015250565b60006144756018836137cc565b91506144808261443f565b602082019050919050565b600060208201905081810360008301526144a481614468565b9050919050565b7f496e76616c6964207465616d20696e6465780000000000000000000000000000600082015250565b60006144e16012836137cc565b91506144ec826144ab565b602082019050919050565b60006020820190508181036000830152614510816144d4565b9050919050565b7f4e487b7100000000000000000000000000000000000000000000000000000000600052603260045260246000fd5b7f526573616c65207072696365206d75737420626520677265617465722074686160008201527f6e20300000000000000000000000000000000000000000000000000000000000602082015250565b60006145a26023836137cc565b91506145ad82614546565b604082019050919050565b600060208201905081810360008301526145d181614595565b9050919050565b60006040820190506145ed600083018561393b565b6145fa602083018461393b565b9392505050565b7f4576656e7420646f6573206e6f74206578697374000000000000000000000000600082015250565b60006146376014836137cc565b915061464282614601565b602082019050919050565b600060208201905081810360008301526146668161462a565b9050919050565b7f4576656e7420697320736f6c64206f7574000000000000000000000000000000600082015250565b60006146a36011836137cc565b91506146ae8261466d565b602082019050919050565b600060208201905081810360008301526146d281614696565b9050919050565b7f4e487b7100000000000000000000000000000000000000000000000000000000600052601160045260246000fd5b60006147138261375e565b91507fffffffffffffffffffffffffffffffffffffffffffffffffffffffffffffffff8203614745576147446146d9565b5b600182019050919050565b6000606082019050614765600083018661393b565b614772602083018561393b565b61477f60408301846138a5565b949350505050565b7f4361706163697479206d7573742062652067726561746572207468616e203000600082015250565b60006147bd601f836137cc565b91506147c882614787565b602082019050919050565b600060208201905081810360008301526147ec816147b0565b9050919050565b60008190508160005260206000209050919050565b60006020601f8301049050919050565b600082821b905092915050565b6000600883026148557fffffffffffffffffffffffffffffffffffffffffffffffffffffffffffffffff82614818565b61485f8683614818565b95508019841693508086168417925050509392505050565b6000819050919050565b600061489c6148976148928461375e565b614877565b61375e565b9050919050565b6000819050919050565b6148b683614881565b6148ca6148c2826148a3565b848454614825565b825550505050565b600090565b6148df6148d2565b6148ea8184846148ad565b505050565b5b8181101561490e576149036000826148d7565b6001810190506148f0565b5050565b601f82111561495357614924816147f3565b61492d84614808565b8101602085101561493c578190505b61495061494885614808565b8301826148ef565b50505b505050565b600082821c905092915050565b600061497660001984600802614958565b1980831691505092915050565b600061498f8383614965565b9150826002028217905092915050565b6149a8826137c1565b67ffffffffffffffff8111156149c1576149c0613bdb565b5b6149cb825461416c565b6149d6828285614912565b600060209050601f831160018114614a0957600084156149f7578287015190505b614a018582614983565b865550614a69565b601f198416614a17866147f3565b60005b82811015614a3f57848901518255600182019150602085019450602081019050614a1a565b86831015614a5c5784890151614a58601f891682614965565b8355505b6001600288020188555050505b505050505050565b600060c082019050614a86600083018961393b565b8181036020830152614a988188613818565b9050614aa760408301876139b2565b614ab4606083018661393b565b614ac1608083018561393b565b614ace60a08301846138a5565b979650505050505050565b7f4e6f742061206861636b6174686f6e0000000000000000000000000000000000600082015250565b6000614b0f600f836137cc565b9150614b1a82614ad9565b602082019050919050565b60006020820190508181036000830152614b3e81614b02565b9050919050565b7f5465616d206d7573742068617665206d656d6265727300000000000000000000600082015250565b6000614b7b6016836137cc565b9150614b8682614b45565b602082019050919050565b60006020820190508181036000830152614baa81614b6e565b9050919050565b600081905092915050565b6000614bc7826137c1565b614bd18185614bb1565b9350614be18185602086016137dd565b80840191505092915050565b6000614bf98285614bbc565b9150614c058284614bbc565b91508190509392505050565b7f4f6e6c79206f7267616e697a65722063616e2066756e64000000000000000000600082015250565b6000614c476017836137cc565b9150614c5282614c11565b602082019050919050565b60006020820190508181036000830152614c7681614c3a565b9050919050565b6000614c888261375e565b9150614c938361375e565b9250828201905080821115614cab57614caa6146d9565b5b92915050565b7f3f6576656e743d00000000000000000000000000000000000000000000000000600082015250565b6000614ce7600783614bb1565b9150614cf282614cb1565b600782019050919050565b7f266e616d653d0000000000000000000000000000000000000000000000000000600082015250565b6000614d33600683614bb1565b9150614d3e82614cfd565b600682019050919050565b6000614d558287614bbc565b9150614d618286614bbc565b9150614d6c82614cda565b9150614d788285614bbc565b9150614d8382614d26565b9150614d8f8284614bbc565b915081905095945050505050565b600081519050919050565b600082825260208201905092915050565b6000614dc482614d9d565b614dce8185614da8565b9350614dde8185602086016137dd565b614de781613807565b840191505092915050565b6000608082019050614e0760008301876138a5565b614e1460208301866138a5565b614e21604083018561393b565b8181036060830152614e338184614db9565b905095945050505050565b600081519050614e4d816136cf565b92915050565b600060208284031215614e6957614e68613699565b5b6000614e7784828501614e3e565b91505092915050565b7f4e487b7100000000000000000000000000000000000000000000000000000000600052601260045260246000fd5b6000614eba8261375e565b9150614ec58361375e565b925082614ed557614ed4614e80565b5b828204905092915050565b6000614eeb8261375e565b9150614ef68361375e565b9250828203905081811115614f0e57614f0d6146d9565b5b92915050565b6000614f1f8261375e565b9150614f2a8361375e565b9250828202614f388161375e565b91508282048414831517614f4f57614f4e6146d9565b5b5092915050565b600060ff82169050919050565b6000614f6e82614f56565b9150614f7983614f56565b9250828201905060ff811115614f9257614f916146d9565b5b92915050565b6000604082019050614fad60008301856138a5565b614fba602083018461393b565b939250505056fea264697066735822122000c61afa9b0fd0ae00dcec5c887d1150d87490fc829a03ea322886593dfb565764736f6c634300081c0033",
  "linkReferences": {},
  "deployedLinkReferences": {}
}