{
    "_format": "hh-sol-artifact-1",
    "contractName": "NFTEventTicketing",
    "sourceName": "contracts/nftTicket.sol",
    "abi": [
        {
            "inputs": [],
            "stateMutability": "nonpayable",
            "type": "constructor"
        },
        {
            "inputs": [
                {
                    "internalType": "address",
                    "name": "sender",
                    "type": "address"
                },
                {
                    "internalType": "uint256",
                    "name": "tokenId",
                    "type": "uint256"
                },
                {
                    "internalType": "address",
                    "name": "owner",
                    "type": "address"
                }
            ],
            "name": "ERC721IncorrectOwner",
            "type": "error"
        },
        {
            "inputs": [
                {
                    "internalType": "address",
                    "name": "operator",
                    "type": "address"
                },
                {
                    "internalType": "uint256",
                    "name": "tokenId",
                    "type": "uint256"
                }
            ],
            "name": "ERC721InsufficientApproval",
            "type": "error"
        },
        {
            "inputs": [
                {
                    "internalType": "address",
                    "name": "approver",
                    "type": "address"
                }
            ],
            "name": "ERC721InvalidApprover",
            "type": "error"
        },
        {
            "inputs": [
                {
                    "internalType": "address",
                    "name": "operator",
                    "type": "address"
                }
            ],
            "name": "ERC721InvalidOperator",
            "type": "error"
        },
        {
            "inputs": [
                {
                    "internalType": "address",
                    "name": "owner",
                    "type": "address"
                }
            ],
            "name": "ERC721InvalidOwner",
            "type": "error"
        },
        {
            "inputs": [
                {
                    "internalType": "address",
                    "name": "receiver",
                    "type": "address"
                }
            ],
            "name": "ERC721InvalidReceiver",
            "type": "error"
        },
        {
            "inputs": [
                {
                    "internalType": "address",
                    "name": "sender",
                    "type": "address"
                }
            ],
            "name": "ERC721InvalidSender",
            "type": "error"
        },
        {
            "inputs": [
                {
                    "internalType": "uint256",
                    "name": "tokenId",
                    "type": "uint256"
                }
            ],
            "name": "ERC721NonexistentToken",
            "type": "error"
        },
        {
            "inputs": [
                {
                    "internalType": "address",
                    "name": "owner",
                    "type": "address"
                }
            ],
            "name": "OwnableInvalidOwner",
            "type": "error"
        },
        {
            "inputs": [
                {
                    "internalType": "address",
                    "name": "account",
                    "type": "address"
                }
            ],
            "name": "OwnableUnauthorizedAccount",
            "type": "error"
        },
        {
            "anonymous": false,
            "inputs": [
                {
                    "indexed": true,
                    "internalType": "address",
                    "name": "owner",
                    "type": "address"
                },
                {
                    "indexed": true,
                    "internalType": "address",
                    "name": "approved",
                    "type": "address"
                },
                {
                    "indexed": true,
                    "internalType": "uint256",
                    "name": "tokenId",
                    "type": "uint256"
                }
            ],
            "name": "Approval",
            "type": "event"
        },
        {
            "anonymous": false,
            "inputs": [
                {
                    "indexed": true,
                    "internalType": "address",
                    "name": "owner",
                    "type": "address"
                },
                {
                    "indexed": true,
                    "internalType": "address",
                    "name": "operator",
                    "type": "address"
                },
                {
                    "indexed": false,
                    "internalType": "bool",
                    "name": "approved",
                    "type": "bool"
                }
            ],
            "name": "ApprovalForAll",
            "type": "event"
        },
        {
            "anonymous": false,
            "inputs": [
                {
                    "indexed": false,
                    "internalType": "uint256",
                    "name": "_fromTokenId",
                    "type": "uint256"
                },
                {
                    "indexed": false,
                    "internalType": "uint256",
                    "name": "_toTokenId",
                    "type": "uint256"
                }
            ],
            "name": "BatchMetadataUpdate",
            "type": "event"
        },
        {
            "anonymous": false,
            "inputs": [
                {
                    "indexed": false,
                    "internalType": "uint256",
                    "name": "eventId",
                    "type": "uint256"
                },
                {
                    "indexed": false,
                    "internalType": "string",
                    "name": "name",
                    "type": "string"
                },
                {
                    "indexed": false,
                    "internalType": "enum NFTEventTicketing.EventType",
                    "name": "eventType",
                    "type": "uint8"
                },
                {
                    "indexed": false,
                    "internalType": "uint256",
                    "name": "price",
                    "type": "uint256"
                },
                {
                    "indexed": false,
                    "internalType": "uint256",
                    "name": "capacity",
                    "type": "uint256"
                },
                {
                    "indexed": false,
                    "internalType": "address",
                    "name": "organizer",
                    "type": "address"
                }
            ],
            "name": "EventCreated",
            "type": "event"
        },
        {
            "anonymous": false,
            "inputs": [
                {
                    "indexed": false,
                    "internalType": "uint256",
                    "name": "_tokenId",
                    "type": "uint256"
                }
            ],
            "name": "MetadataUpdate",
            "type": "event"
        },
        {
            "anonymous": false,
            "inputs": [
                {
                    "indexed": true,
                    "internalType": "address",
                    "name": "previousOwner",
                    "type": "address"
                },
                {
                    "indexed": true,
                    "internalType": "address",
                    "name": "newOwner",
                    "type": "address"
                }
            ],
            "name": "OwnershipTransferred",
            "type": "event"
        },
        {
            "anonymous": false,
            "inputs": [
                {
                    "indexed": false,
                    "internalType": "uint256",
                    "name": "ticketId",
                    "type": "uint256"
                },
                {
                    "indexed": false,
                    "internalType": "uint256",
                    "name": "resalePrice",
                    "type": "uint256"
                }
            ],
            "name": "TicketListedForResale",
            "type": "event"
        },
        {
            "anonymous": false,
            "inputs": [
                {
                    "indexed": false,
                    "internalType": "uint256",
                    "name": "ticketId",
                    "type": "uint256"
                },
                {
                    "indexed": false,
                    "internalType": "uint256",
                    "name": "eventId",
                    "type": "uint256"
                },
                {
                    "indexed": false,
                    "internalType": "address",
                    "name": "buyer",
                    "type": "address"
                }
            ],
            "name": "TicketPurchased",
            "type": "event"
        },
        {
            "anonymous": false,
            "inputs": [
                {
                    "indexed": false,
                    "internalType": "uint256",
                    "name": "ticketId",
                    "type": "uint256"
                },
                {
                    "indexed": false,
                    "internalType": "address",
                    "name": "newOwner",
                    "type": "address"
                }
            ],
            "name": "TicketResold",
            "type": "event"
        },
        {
            "anonymous": false,
            "inputs": [
                {
                    "indexed": true,
                    "internalType": "address",
                    "name": "from",
                    "type": "address"
                },
                {
                    "indexed": true,
                    "internalType": "address",
                    "name": "to",
                    "type": "address"
                },
                {
                    "indexed": true,
                    "internalType": "uint256",
                    "name": "tokenId",
                    "type": "uint256"
                }
            ],
            "name": "Transfer",
            "type": "event"
        },
        {
            "inputs": [
                {
                    "internalType": "address",
                    "name": "to",
                    "type": "address"
                },
                {
                    "internalType": "uint256",
                    "name": "tokenId",
                    "type": "uint256"
                }
            ],
            "name": "approve",
            "outputs": [],
            "stateMutability": "nonpayable",
            "type": "function"
        },
        {
            "inputs": [
                {
                    "internalType": "address",
                    "name": "owner",
                    "type": "address"
                }
            ],
            "name": "balanceOf",
            "outputs": [
                {
                    "internalType": "uint256",
                    "name": "",
                    "type": "uint256"
                }
            ],
            "stateMutability": "view",
            "type": "function"
        },
        {
            "inputs": [
                {
                    "internalType": "uint256",
                    "name": "ticketId",
                    "type": "uint256"
                }
            ],
            "name": "buyResaleTicket",
            "outputs": [],
            "stateMutability": "payable",
            "type": "function"
        },
        {
            "inputs": [
                {
                    "internalType": "uint256",
                    "name": "eventId",
                    "type": "uint256"
                }
            ],
            "name": "buyTicket",
            "outputs": [],
            "stateMutability": "payable",
            "type": "function"
        },
        {
            "inputs": [
                {
                    "internalType": "uint256",
                    "name": "ticketId",
                    "type": "uint256"
                }
            ],
            "name": "cancelResaleListing",
            "outputs": [],
            "stateMutability": "nonpayable",
            "type": "function"
        },
        {
            "inputs": [
                {
                    "internalType": "string",
                    "name": "name",
                    "type": "string"
                },
                {
                    "internalType": "enum NFTEventTicketing.EventType",
                    "name": "eventType",
                    "type": "uint8"
                },
                {
                    "internalType": "uint256",
                    "name": "price",
                    "type": "uint256"
                },
                {
                    "internalType": "uint256",
                    "name": "capacity",
                    "type": "uint256"
                }
            ],
            "name": "createEvent",
            "outputs": [],
            "stateMutability": "nonpayable",
            "type": "function"
        },
        {
            "inputs": [
                {
                    "internalType": "uint256",
                    "name": "",
                    "type": "uint256"
                }
            ],
            "name": "events",
            "outputs": [
                {
                    "internalType": "uint256",
                    "name": "id",
                    "type": "uint256"
                },
                {
                    "internalType": "string",
                    "name": "name",
                    "type": "string"
                },
                {
                    "internalType": "enum NFTEventTicketing.EventType",
                    "name": "eventType",
                    "type": "uint8"
                },
                {
                    "internalType": "uint256",
                    "name": "price",
                    "type": "uint256"
                },
                {
                    "internalType": "uint256",
                    "name": "capacity",
                    "type": "uint256"
                },
                {
                    "internalType": "uint256",
                    "name": "ticketsSold",
                    "type": "uint256"
                },
                {
                    "internalType": "address",
                    "name": "organizer",
                    "type": "address"
                }
            ],
            "stateMutability": "view",
            "type": "function"
        },
        {
            "inputs": [
                {
                    "internalType": "uint256",
                    "name": "tokenId",
                    "type": "uint256"
                }
            ],
            "name": "getApproved",
            "outputs": [
                {
                    "internalType": "address",
                    "name": "",
                    "type": "address"
                }
            ],
            "stateMutability": "view",
            "type": "function"
        },
        {
            "inputs": [
                {
                    "internalType": "address",
                    "name": "owner",
                    "type": "address"
                },
                {
                    "internalType": "address",
                    "name": "operator",
                    "type": "address"
                }
            ],
            "name": "isApprovedForAll",
            "outputs": [
                {
                    "internalType": "bool",
                    "name": "",
                    "type": "bool"
                }
            ],
            "stateMutability": "view",
            "type": "function"
        },
        {
            "inputs": [
                {
                    "internalType": "uint256",
                    "name": "ticketId",
                    "type": "uint256"
                },
                {
                    "internalType": "uint256",
                    "name": "resalePrice",
                    "type": "uint256"
                }
            ],
            "name": "listTicketForResale",
            "outputs": [],
            "stateMutability": "nonpayable",
            "type": "function"
        },
        {
            "inputs": [],
            "name": "name",
            "outputs": [
                {
                    "internalType": "string",
                    "name": "",
                    "type": "string"
                }
            ],
            "stateMutability": "view",
            "type": "function"
        },
        {
            "inputs": [],
            "name": "owner",
            "outputs": [
                {
                    "internalType": "address",
                    "name": "",
                    "type": "address"
                }
            ],
            "stateMutability": "view",
            "type": "function"
        },
        {
            "inputs": [
                {
                    "internalType": "uint256",
                    "name": "tokenId",
                    "type": "uint256"
                }
            ],
            "name": "ownerOf",
            "outputs": [
                {
                    "internalType": "address",
                    "name": "",
                    "type": "address"
                }
            ],
            "stateMutability": "view",
            "type": "function"
        },
        {
            "inputs": [],
            "name": "renounceOwnership",
            "outputs": [],
            "stateMutability": "nonpayable",
            "type": "function"
        },
        {
            "inputs": [
                {
                    "internalType": "address",
                    "name": "from",
                    "type": "address"
                },
                {
                    "internalType": "address",
                    "name": "to",
                    "type": "address"
                },
                {
                    "internalType": "uint256",
                    "name": "tokenId",
                    "type": "uint256"
                }
            ],
            "name": "safeTransferFrom",
            "outputs": [],
            "stateMutability": "nonpayable",
            "type": "function"
        },
        {
            "inputs": [
                {
                    "internalType": "address",
                    "name": "from",
                    "type": "address"
                },
                {
                    "internalType": "address",
                    "name": "to",
                    "type": "address"
                },
                {
                    "internalType": "uint256",
                    "name": "tokenId",
                    "type": "uint256"
                },
                {
                    "internalType": "bytes",
                    "name": "data",
                    "type": "bytes"
                }
            ],
            "name": "safeTransferFrom",
            "outputs": [],
            "stateMutability": "nonpayable",
            "type": "function"
        },
        {
            "inputs": [
                {
                    "internalType": "address",
                    "name": "operator",
                    "type": "address"
                },
                {
                    "internalType": "bool",
                    "name": "approved",
                    "type": "bool"
                }
            ],
            "name": "setApprovalForAll",
            "outputs": [],
            "stateMutability": "nonpayable",
            "type": "function"
        },
        {
            "inputs": [
                {
                    "internalType": "bytes4",
                    "name": "interfaceId",
                    "type": "bytes4"
                }
            ],
            "name": "supportsInterface",
            "outputs": [
                {
                    "internalType": "bool",
                    "name": "",
                    "type": "bool"
                }
            ],
            "stateMutability": "view",
            "type": "function"
        },
        {
            "inputs": [],
            "name": "symbol",
            "outputs": [
                {
                    "internalType": "string",
                    "name": "",
                    "type": "string"
                }
            ],
            "stateMutability": "view",
            "type": "function"
        },
        {
            "inputs": [
                {
                    "internalType": "uint256",
                    "name": "",
                    "type": "uint256"
                }
            ],
            "name": "tickets",
            "outputs": [
                {
                    "internalType": "uint256",
                    "name": "id",
                    "type": "uint256"
                },
                {
                    "internalType": "uint256",
                    "name": "eventId",
                    "type": "uint256"
                },
                {
                    "internalType": "address",
                    "name": "owner",
                    "type": "address"
                },
                {
                    "internalType": "uint256",
                    "name": "resalePrice",
                    "type": "uint256"
                },
                {
                    "internalType": "bool",
                    "name": "forSale",
                    "type": "bool"
                }
            ],
            "stateMutability": "view",
            "type": "function"
        },
        {
            "inputs": [
                {
                    "internalType": "uint256",
                    "name": "tokenId",
                    "type": "uint256"
                }
            ],
            "name": "tokenURI",
            "outputs": [
                {
                    "internalType": "string",
                    "name": "",
                    "type": "string"
                }
            ],
            "stateMutability": "view",
            "type": "function"
        },
        {
            "inputs": [
                {
                    "internalType": "address",
                    "name": "from",
                    "type": "address"
                },
                {
                    "internalType": "address",
                    "name": "to",
                    "type": "address"
                },
                {
                    "internalType": "uint256",
                    "name": "tokenId",
                    "type": "uint256"
                }
            ],
            "name": "transferFrom",
            "outputs": [],
            "stateMutability": "nonpayable",
            "type": "function"
        },
        {
            "inputs": [
                {
                    "internalType": "address",
                    "name": "newOwner",
                    "type": "address"
                }
            ],
            "name": "transferOwnership",
            "outputs": [],
            "stateMutability": "nonpayable",
            "type": "function"
        }
    ],
    "bytecode": "0x608060405234801561001057600080fd5b50336040518060400160405280600e81526020017f4576656e745469636b65744e46540000000000000000000000000000000000008152506040518060400160405280600581526020017f45544e4654000000000000000000000000000000000000000000000000000000815250816000908161008d919061043d565b50806001908161009d919061043d565b505050600073ffffffffffffffffffffffffffffffffffffffff168173ffffffffffffffffffffffffffffffffffffffff16036101125760006040517f1e4fbdf70000000000000000000000000000000000000000000000000000000081526004016101099190610550565b60405180910390fd5b6101218161012760201b60201c565b5061056b565b6000600760009054906101000a900473ffffffffffffffffffffffffffffffffffffffff16905081600760006101000a81548173ffffffffffffffffffffffffffffffffffffffff021916908373ffffffffffffffffffffffffffffffffffffffff1602179055508173ffffffffffffffffffffffffffffffffffffffff168173ffffffffffffffffffffffffffffffffffffffff167f8be0079c531659141344cd1fd0a4f28419497f9722a3daafe3b4186f6b6457e060405160405180910390a35050565b600081519050919050565b7f4e487b7100000000000000000000000000000000000000000000000000000000600052604160045260246000fd5b7f4e487b7100000000000000000000000000000000000000000000000000000000600052602260045260246000fd5b6000600282049050600182168061026e57607f821691505b60208210810361028157610280610227565b5b50919050565b60008190508160005260206000209050919050565b60006020601f8301049050919050565b600082821b905092915050565b6000600883026102e97fffffffffffffffffffffffffffffffffffffffffffffffffffffffffffffffff826102ac565b6102f386836102ac565b95508019841693508086168417925050509392505050565b6000819050919050565b6000819050919050565b600061033a6103356103308461030b565b610315565b61030b565b9050919050565b6000819050919050565b6103548361031f565b61036861036082610341565b8484546102b9565b825550505050565b600090565b61037d610370565b61038881848461034b565b505050565b5b818110156103ac576103a1600082610375565b60018101905061038e565b5050565b601f8211156103f1576103c281610287565b6103cb8461029c565b810160208510156103da578190505b6103ee6103e68561029c565b83018261038d565b50505b505050565b600082821c905092915050565b6000610414600019846008026103f6565b1980831691505092915050565b600061042d8383610403565b9150826002028217905092915050565b610446826101ed565b67ffffffffffffffff81111561045f5761045e6101f8565b5b6104698254610256565b6104748282856103b0565b600060209050601f8311600181146104a75760008415610495578287015190505b61049f8582610421565b865550610507565b601f1984166104b586610287565b60005b828110156104dd578489015182556001820191506020850194506020810190506104b8565b868310156104fa57848901516104f6601f891682610403565b8355505b6001600288020188555050505b505050505050565b600073ffffffffffffffffffffffffffffffffffffffff82169050919050565b600061053a8261050f565b9050919050565b61054a8161052f565b82525050565b60006020820190506105656000830184610541565b92915050565b6140ac8061057a6000396000f3fe6080604052600436106101405760003560e01c80636352211e116100b6578063a22cb4651161006f578063a22cb4651461045a578063b88d4fde14610483578063c2e93021146104ac578063c87b56dd146104d5578063e985e9c514610512578063f2fde38b1461054f57610140565b80636352211e1461035757806367dd74ca1461039457806370a08231146103b0578063715018a6146103ed5780638da5cb5b1461040457806395d89b411461042f57610140565b80631d9c5d5c116101085780631d9c5d5c1461025657806323b872dd14610272578063384759341461029b57806342842e0e146102c457806350b44712146102ed5780636053b0ef1461032e57610140565b806301ffc9a71461014557806306fdde0314610182578063081812fc146101ad578063095ea7b3146101ea5780630b79143014610213575b600080fd5b34801561015157600080fd5b5061016c60048036038101906101679190612c2b565b610578565b6040516101799190612c73565b60405180910390f35b34801561018e57600080fd5b506101976105d9565b6040516101a49190612d1e565b60405180910390f35b3480156101b957600080fd5b506101d460048036038101906101cf9190612d76565b61066b565b6040516101e19190612de4565b60405180910390f35b3480156101f657600080fd5b50610211600480360381019061020c9190612e2b565b610687565b005b34801561021f57600080fd5b5061023a60048036038101906102359190612d76565b61069d565b60405161024d9796959493929190612ef1565b60405180910390f35b610270600480360381019061026b9190612d76565b610794565b005b34801561027e57600080fd5b5061029960048036038101906102949190612f67565b6109ad565b005b3480156102a757600080fd5b506102c260048036038101906102bd9190612d76565b610aaf565b005b3480156102d057600080fd5b506102eb60048036038101906102e69190612f67565b610bb8565b005b3480156102f957600080fd5b50610314600480360381019061030f9190612d76565b610bd8565b604051610325959493929190612fba565b60405180910390f35b34801561033a57600080fd5b506103556004803603810190610350919061300d565b610c3b565b005b34801561036357600080fd5b5061037e60048036038101906103799190612d76565b610d6f565b60405161038b9190612de4565b60405180910390f35b6103ae60048036038101906103a99190612d76565b610d81565b005b3480156103bc57600080fd5b506103d760048036038101906103d2919061304d565b6110df565b6040516103e4919061307a565b60405180910390f35b3480156103f957600080fd5b50610402611199565b005b34801561041057600080fd5b506104196111ad565b6040516104269190612de4565b60405180910390f35b34801561043b57600080fd5b506104446111d7565b6040516104519190612d1e565b60405180910390f35b34801561046657600080fd5b50610481600480360381019061047c91906130c1565b611269565b005b34801561048f57600080fd5b506104aa60048036038101906104a59190613236565b61127f565b005b3480156104b857600080fd5b506104d360048036038101906104ce919061337f565b6112a4565b005b3480156104e157600080fd5b506104fc60048036038101906104f79190612d76565b611475565b6040516105099190612d1e565b60405180910390f35b34801561051e57600080fd5b5061053960048036038101906105349190613402565b611588565b6040516105469190612c73565b60405180910390f35b34801561055b57600080fd5b506105766004803603810190610571919061304d565b61161c565b005b6000634906490660e01b7bffffffffffffffffffffffffffffffffffffffffffffffffffffffff1916827bffffffffffffffffffffffffffffffffffffffffffffffffffffffff191614806105d257506105d1826116a2565b5b9050919050565b6060600080546105e890613471565b80601f016020809104026020016040519081016040528092919081815260200182805461061490613471565b80156106615780601f1061063657610100808354040283529160200191610661565b820191906000526020600020905b81548152906001019060200180831161064457829003601f168201915b5050505050905090565b600061067682611784565b506106808261180c565b9050919050565b6106998282610694611849565b611851565b5050565b600a6020528060005260406000206000915090508060000154908060010180546106c690613471565b80601f01602080910402602001604051908101604052809291908181526020018280546106f290613471565b801561073f5780601f106107145761010080835404028352916020019161073f565b820191906000526020600020905b81548152906001019060200180831161072257829003601f168201915b5050505050908060020160009054906101000a900460ff16908060030154908060040154908060050154908060060160009054906101000a900473ffffffffffffffffffffffffffffffffffffffff16905087565b61079d81611863565b6107dc576040517f08c379a00000000000000000000000000000000000000000000000000000000081526004016107d3906134ee565b60405180910390fd5b6000600b600083815260200190815260200160002090508060040160009054906101000a900460ff16610844576040517f08c379a000000000000000000000000000000000000000000000000000000000815260040161083b9061355a565b60405180910390fd5b8060030154341461088a576040517f08c379a0000000000000000000000000000000000000000000000000000000008152600401610881906135c6565b60405180910390fd5b60008160020160009054906101000a900473ffffffffffffffffffffffffffffffffffffffff169050338260020160006101000a81548173ffffffffffffffffffffffffffffffffffffffff021916908373ffffffffffffffffffffffffffffffffffffffff16021790555060008260040160006101000a81548160ff02191690831515021790555060008260030181905550610928813385611886565b8073ffffffffffffffffffffffffffffffffffffffff166108fc349081150290604051600060405180830381858888f1935050505015801561096e573d6000803e3d6000fd5b507fc0e2772be7cecf9477b91086d97e2d0d8008fe6a87446496065bdfef589adca183336040516109a09291906135e6565b60405180910390a1505050565b600073ffffffffffffffffffffffffffffffffffffffff168273ffffffffffffffffffffffffffffffffffffffff1603610a1f5760006040517f64a0ae92000000000000000000000000000000000000000000000000000000008152600401610a169190612de4565b60405180910390fd5b6000610a338383610a2e611849565b6119f3565b90508373ffffffffffffffffffffffffffffffffffffffff168173ffffffffffffffffffffffffffffffffffffffff1614610aa9578382826040517f64283d7b000000000000000000000000000000000000000000000000000000008152600401610aa09392919061360f565b60405180910390fd5b50505050565b3373ffffffffffffffffffffffffffffffffffffffff16610acf82610d6f565b73ffffffffffffffffffffffffffffffffffffffff1614610b25576040517f08c379a0000000000000000000000000000000000000000000000000000000008152600401610b1c906136b8565b60405180910390fd5b6000600b600083815260200190815260200160002090508060040160009054906101000a900460ff16610b8d576040517f08c379a0000000000000000000000000000000000000000000000000000000008152600401610b8490613724565b60405180910390fd5b60008160040160006101000a81548160ff021916908315150217905550600081600301819055505050565b610bd38383836040518060200160405280600081525061127f565b505050565b600b6020528060005260406000206000915090508060000154908060010154908060020160009054906101000a900473ffffffffffffffffffffffffffffffffffffffff16908060030154908060040160009054906101000a900460ff16905085565b3373ffffffffffffffffffffffffffffffffffffffff16610c5b83610d6f565b73ffffffffffffffffffffffffffffffffffffffff1614610cb1576040517f08c379a0000000000000000000000000000000000000000000000000000000008152600401610ca8906136b8565b60405180910390fd5b60008111610cf4576040517f08c379a0000000000000000000000000000000000000000000000000000000008152600401610ceb906137b6565b60405180910390fd5b6000600b6000848152602001908152602001600020905081816003018190555060018160040160006101000a81548160ff0219169083151502179055507f2d8cbebfd87cb19b7bed949f9c8d5a80d939133966ef331ac575d69160ea04658383604051610d629291906137d6565b60405180910390a1505050565b6000610d7a82611784565b9050919050565b6000600a600083815260200190815260200160002090506000816000015403610ddf576040517f08c379a0000000000000000000000000000000000000000000000000000000008152600401610dd69061384b565b60405180910390fd5b8060040154816005015410610e29576040517f08c379a0000000000000000000000000000000000000000000000000000000008152600401610e20906138b7565b60405180910390fd5b80600301543414610e6f576040517f08c379a0000000000000000000000000000000000000000000000000000000008152600401610e66906135c6565b60405180910390fd5b60096000815480929190610e8290613906565b9190505550600060095490506040518060a001604052808281526020018481526020013373ffffffffffffffffffffffffffffffffffffffff1681526020016000815260200160001515815250600b6000838152602001908152602001600020600082015181600001556020820151816001015560408201518160020160006101000a81548173ffffffffffffffffffffffffffffffffffffffff021916908373ffffffffffffffffffffffffffffffffffffffff1602179055506060820151816003015560808201518160040160006101000a81548160ff021916908315150217905550905050816005016000815480929190610f7f90613906565b9190505550610f8e3382611b41565b60006110278285856001018054610fa490613471565b80601f0160208091040260200160405190810160405280929190818152602001828054610fd090613471565b801561101d5780601f10610ff25761010080835404028352916020019161101d565b820191906000526020600020905b81548152906001019060200180831161100057829003601f168201915b5050505050611c3a565b90506110338282611cc2565b8260060160009054906101000a900473ffffffffffffffffffffffffffffffffffffffff1673ffffffffffffffffffffffffffffffffffffffff166108fc349081150290604051600060405180830381858888f1935050505015801561109d573d6000803e3d6000fd5b507f94c5953e15f54d38b82a662bdd5739fc91af3a23d3ef7e67269dfaeee71a813c8285336040516110d19392919061394e565b60405180910390a150505050565b60008073ffffffffffffffffffffffffffffffffffffffff168273ffffffffffffffffffffffffffffffffffffffff16036111525760006040517f89c62b640000000000000000000000000000000000000000000000000000000081526004016111499190612de4565b60405180910390fd5b600360008373ffffffffffffffffffffffffffffffffffffffff1673ffffffffffffffffffffffffffffffffffffffff168152602001908152602001600020549050919050565b6111a1611d1e565b6111ab6000611da5565b565b6000600760009054906101000a900473ffffffffffffffffffffffffffffffffffffffff16905090565b6060600180546111e690613471565b80601f016020809104026020016040519081016040528092919081815260200182805461121290613471565b801561125f5780601f106112345761010080835404028352916020019161125f565b820191906000526020600020905b81548152906001019060200180831161124257829003601f168201915b5050505050905090565b61127b611274611849565b8383611e6b565b5050565b61128a8484846109ad565b61129e611295611849565b85858585611fda565b50505050565b600081116112e7576040517f08c379a00000000000000000000000000000000000000000000000000000000081526004016112de906139d1565b60405180910390fd5b600860008154809291906112fa90613906565b9190505550600060085490506040518060e001604052808281526020018681526020018560028111156113305761132f612e7a565b5b8152602001848152602001838152602001600081526020013373ffffffffffffffffffffffffffffffffffffffff16815250600a60008381526020019081526020016000206000820151816000015560208201518160010190816113949190613b9d565b5060408201518160020160006101000a81548160ff021916908360028111156113c0576113bf612e7a565b5b0217905550606082015181600301556080820151816004015560a0820151816005015560c08201518160060160006101000a81548173ffffffffffffffffffffffffffffffffffffffff021916908373ffffffffffffffffffffffffffffffffffffffff1602179055509050507fde958b56325d663bb83f2836d1b9099bd2fe7c65ca1b7d93a97619fcb475240c81868686863360405161146696959493929190613c6f565b60405180910390a15050505050565b606061148082611784565b5060006006600084815260200190815260200160002080546114a190613471565b80601f01602080910402602001604051908101604052809291908181526020018280546114cd90613471565b801561151a5780601f106114ef5761010080835404028352916020019161151a565b820191906000526020600020905b8154815290600101906020018083116114fd57829003601f168201915b50505050509050600061152b61218b565b90506000815103611540578192505050611583565b60008251111561157557808260405160200161155d929190613d13565b60405160208183030381529060405292505050611583565b61157e846121a2565b925050505b919050565b6000600560008473ffffffffffffffffffffffffffffffffffffffff1673ffffffffffffffffffffffffffffffffffffffff16815260200190815260200160002060008373ffffffffffffffffffffffffffffffffffffffff1673ffffffffffffffffffffffffffffffffffffffff16815260200190815260200160002060009054906101000a900460ff16905092915050565b611624611d1e565b600073ffffffffffffffffffffffffffffffffffffffff168173ffffffffffffffffffffffffffffffffffffffff16036116965760006040517f1e4fbdf700000000000000000000000000000000000000000000000000000000815260040161168d9190612de4565b60405180910390fd5b61169f81611da5565b50565b60007f80ac58cd000000000000000000000000000000000000000000000000000000007bffffffffffffffffffffffffffffffffffffffffffffffffffffffff1916827bffffffffffffffffffffffffffffffffffffffffffffffffffffffff1916148061176d57507f5b5e139f000000000000000000000000000000000000000000000000000000007bffffffffffffffffffffffffffffffffffffffffffffffffffffffff1916827bffffffffffffffffffffffffffffffffffffffffffffffffffffffff1916145b8061177d575061177c8261220b565b5b9050919050565b60008061179083612275565b9050600073ffffffffffffffffffffffffffffffffffffffff168173ffffffffffffffffffffffffffffffffffffffff160361180357826040517f7e2732890000000000000000000000000000000000000000000000000000000081526004016117fa919061307a565b60405180910390fd5b80915050919050565b60006004600083815260200190815260200160002060009054906101000a900473ffffffffffffffffffffffffffffffffffffffff169050919050565b600033905090565b61185e83838360016122b2565b505050565b600080600b60008481526020019081526020016000206000015414159050919050565b600073ffffffffffffffffffffffffffffffffffffffff168273ffffffffffffffffffffffffffffffffffffffff16036118f85760006040517f64a0ae920000000000000000000000000000000000000000000000000000000081526004016118ef9190612de4565b60405180910390fd5b6000611906838360006119f3565b9050600073ffffffffffffffffffffffffffffffffffffffff168173ffffffffffffffffffffffffffffffffffffffff160361197957816040517f7e273289000000000000000000000000000000000000000000000000000000008152600401611970919061307a565b60405180910390fd5b8373ffffffffffffffffffffffffffffffffffffffff168173ffffffffffffffffffffffffffffffffffffffff16146119ed578382826040517f64283d7b0000000000000000000000000000000000000000000000000000000081526004016119e49392919061360f565b60405180910390fd5b50505050565b600080611a01858585612477565b9050600073ffffffffffffffffffffffffffffffffffffffff168173ffffffffffffffffffffffffffffffffffffffff1614158015611a6d5750600073ffffffffffffffffffffffffffffffffffffffff168573ffffffffffffffffffffffffffffffffffffffff1614155b8015611a9057506000600b60008681526020019081526020016000206000015414155b15611b365784600b600086815260200190815260200160002060020160006101000a81548173ffffffffffffffffffffffffffffffffffffffff021916908373ffffffffffffffffffffffffffffffffffffffff1602179055506000600b600086815260200190815260200160002060040160006101000a81548160ff0219169083151502179055506000600b6000868152602001908152602001600020600301819055505b809150509392505050565b600073ffffffffffffffffffffffffffffffffffffffff168273ffffffffffffffffffffffffffffffffffffffff1603611bb35760006040517f64a0ae92000000000000000000000000000000000000000000000000000000008152600401611baa9190612de4565b60405180910390fd5b6000611bc1838360006119f3565b9050600073ffffffffffffffffffffffffffffffffffffffff168173ffffffffffffffffffffffffffffffffffffffff1614611c355760006040517f73c6ac6e000000000000000000000000000000000000000000000000000000008152600401611c2c9190612de4565b60405180910390fd5b505050565b606060006040518060400160405280602081526020017f68747470733a2f2f6170692e6578616d706c652e636f6d2f7469636b6574732f81525090506000611c8186612691565b90506000611c8e86612691565b905082828287604051602001611ca79493929190613dcf565b60405160208183030381529060405293505050509392505050565b80600660008481526020019081526020016000209081611ce29190613b9d565b507ff8e1a15aba9398e019f0b49df1a4fde98ee17ae345cb5f6b5e2c27f5033e8ce782604051611d12919061307a565b60405180910390a15050565b611d26611849565b73ffffffffffffffffffffffffffffffffffffffff16611d446111ad565b73ffffffffffffffffffffffffffffffffffffffff1614611da357611d67611849565b6040517f118cdaa7000000000000000000000000000000000000000000000000000000008152600401611d9a9190612de4565b60405180910390fd5b565b6000600760009054906101000a900473ffffffffffffffffffffffffffffffffffffffff16905081600760006101000a81548173ffffffffffffffffffffffffffffffffffffffff021916908373ffffffffffffffffffffffffffffffffffffffff1602179055508173ffffffffffffffffffffffffffffffffffffffff168173ffffffffffffffffffffffffffffffffffffffff167f8be0079c531659141344cd1fd0a4f28419497f9722a3daafe3b4186f6b6457e060405160405180910390a35050565b600073ffffffffffffffffffffffffffffffffffffffff168273ffffffffffffffffffffffffffffffffffffffff1603611edc57816040517f5b08ba18000000000000000000000000000000000000000000000000000000008152600401611ed39190612de4565b60405180910390fd5b80600560008573ffffffffffffffffffffffffffffffffffffffff1673ffffffffffffffffffffffffffffffffffffffff16815260200190815260200160002060008473ffffffffffffffffffffffffffffffffffffffff1673ffffffffffffffffffffffffffffffffffffffff16815260200190815260200160002060006101000a81548160ff0219169083151502179055508173ffffffffffffffffffffffffffffffffffffffff168373ffffffffffffffffffffffffffffffffffffffff167f17307eab39ab6107e8899845ad3d59bd9653f200f220920489ca2b5937696c3183604051611fcd9190612c73565b60405180910390a3505050565b60008373ffffffffffffffffffffffffffffffffffffffff163b1115612184578273ffffffffffffffffffffffffffffffffffffffff1663150b7a02868685856040518563ffffffff1660e01b81526004016120399493929190613e78565b6020604051808303816000875af192505050801561207557506040513d601f19601f820116820180604052508101906120729190613ed9565b60015b6120f9573d80600081146120a5576040519150601f19603f3d011682016040523d82523d6000602084013e6120aa565b606091505b5060008151036120f157836040517f64a0ae920000000000000000000000000000000000000000000000000000000081526004016120e89190612de4565b60405180910390fd5b805181602001fd5b63150b7a0260e01b7bffffffffffffffffffffffffffffffffffffffffffffffffffffffff1916817bffffffffffffffffffffffffffffffffffffffffffffffffffffffff19161461218257836040517f64a0ae920000000000000000000000000000000000000000000000000000000081526004016121799190612de4565b60405180910390fd5b505b5050505050565b606060405180602001604052806000815250905090565b60606121ad82611784565b5060006121b861218b565b905060008151116121d85760405180602001604052806000815250612203565b806121e284612819565b6040516020016121f3929190613d13565b6040516020818303038152906040525b915050919050565b60007f01ffc9a7000000000000000000000000000000000000000000000000000000007bffffffffffffffffffffffffffffffffffffffffffffffffffffffff1916827bffffffffffffffffffffffffffffffffffffffffffffffffffffffff1916149050919050565b60006002600083815260200190815260200160002060009054906101000a900473ffffffffffffffffffffffffffffffffffffffff169050919050565b80806122eb5750600073ffffffffffffffffffffffffffffffffffffffff168273ffffffffffffffffffffffffffffffffffffffff1614155b1561241f5760006122fb84611784565b9050600073ffffffffffffffffffffffffffffffffffffffff168373ffffffffffffffffffffffffffffffffffffffff161415801561236657508273ffffffffffffffffffffffffffffffffffffffff168173ffffffffffffffffffffffffffffffffffffffff1614155b801561237957506123778184611588565b155b156123bb57826040517fa9fbf51f0000000000000000000000000000000000000000000000000000000081526004016123b29190612de4565b60405180910390fd5b811561241d57838573ffffffffffffffffffffffffffffffffffffffff168273ffffffffffffffffffffffffffffffffffffffff167f8c5be1e5ebec7d5bd14f71427d1e84f3dd0314c0f7b2291e5b200ac8c7c3b92560405160405180910390a45b505b836004600085815260200190815260200160002060006101000a81548173ffffffffffffffffffffffffffffffffffffffff021916908373ffffffffffffffffffffffffffffffffffffffff16021790555050505050565b60008061248384612275565b9050600073ffffffffffffffffffffffffffffffffffffffff168373ffffffffffffffffffffffffffffffffffffffff16146124c5576124c48184866128e7565b5b600073ffffffffffffffffffffffffffffffffffffffff168173ffffffffffffffffffffffffffffffffffffffff1614612556576125076000856000806122b2565b6001600360008373ffffffffffffffffffffffffffffffffffffffff1673ffffffffffffffffffffffffffffffffffffffff168152602001908152602001600020600082825403925050819055505b600073ffffffffffffffffffffffffffffffffffffffff168573ffffffffffffffffffffffffffffffffffffffff16146125d9576001600360008773ffffffffffffffffffffffffffffffffffffffff1673ffffffffffffffffffffffffffffffffffffffff168152602001908152602001600020600082825401925050819055505b846002600086815260200190815260200160002060006101000a81548173ffffffffffffffffffffffffffffffffffffffff021916908373ffffffffffffffffffffffffffffffffffffffff160217905550838573ffffffffffffffffffffffffffffffffffffffff168273ffffffffffffffffffffffffffffffffffffffff167fddf252ad1be2c89b69c2b068fc378daa952ba7f163c4a11628f55a4df523b3ef60405160405180910390a4809150509392505050565b6060600082036126d8576040518060400160405280600181526020017f30000000000000000000000000000000000000000000000000000000000000008152509050612814565b600082905060005b6000821461270a5780806126f390613906565b915050600a826127039190613f35565b91506126e0565b60008167ffffffffffffffff8111156127265761272561310b565b5b6040519080825280601f01601f1916602001820160405280156127585781602001600182028036833780820191505090505b50905060008290505b6000861461280c576001816127769190613f66565b90506000600a80886127889190613f35565b6127929190613f9a565b8761279d9190613f66565b60306127a99190613fe9565b905060008160f81b9050808484815181106127c7576127c661401e565b5b60200101907effffffffffffffffffffffffffffffffffffffffffffffffffffffffffffff1916908160001a905350600a886128039190613f35565b97505050612761565b819450505050505b919050565b606060006001612828846129ab565b01905060008167ffffffffffffffff8111156128475761284661310b565b5b6040519080825280601f01601f1916602001820160405280156128795781602001600182028036833780820191505090505b509050600082602001820190505b6001156128dc578080600190039150507f3031323334353637383961626364656600000000000000000000000000000000600a86061a8153600a85816128d0576128cf613f06565b5b04945060008503612887575b819350505050919050565b6128f2838383612afe565b6129a657600073ffffffffffffffffffffffffffffffffffffffff168373ffffffffffffffffffffffffffffffffffffffff160361296757806040517f7e27328900000000000000000000000000000000000000000000000000000000815260040161295e919061307a565b60405180910390fd5b81816040517f177e802f00000000000000000000000000000000000000000000000000000000815260040161299d92919061404d565b60405180910390fd5b505050565b600080600090507a184f03e93ff9f4daa797ed6e38ed64bf6a1f0100000000000000008310612a09577a184f03e93ff9f4daa797ed6e38ed64bf6a1f01000000000000000083816129ff576129fe613f06565b5b0492506040810190505b6d04ee2d6d415b85acef81000000008310612a46576d04ee2d6d415b85acef81000000008381612a3c57612a3b613f06565b5b0492506020810190505b662386f26fc100008310612a7557662386f26fc100008381612a6b57612a6a613f06565b5b0492506010810190505b6305f5e1008310612a9e576305f5e1008381612a9457612a93613f06565b5b0492506008810190505b6127108310612ac3576127108381612ab957612ab8613f06565b5b0492506004810190505b60648310612ae65760648381612adc57612adb613f06565b5b0492506002810190505b600a8310612af5576001810190505b80915050919050565b60008073ffffffffffffffffffffffffffffffffffffffff168373ffffffffffffffffffffffffffffffffffffffff1614158015612bb657508273ffffffffffffffffffffffffffffffffffffffff168473ffffffffffffffffffffffffffffffffffffffff161480612b775750612b768484611588565b5b80612bb557508273ffffffffffffffffffffffffffffffffffffffff16612b9d8361180c565b73ffffffffffffffffffffffffffffffffffffffff16145b5b90509392505050565b6000604051905090565b600080fd5b600080fd5b60007fffffffff0000000000000000000000000000000000000000000000000000000082169050919050565b612c0881612bd3565b8114612c1357600080fd5b50565b600081359050612c2581612bff565b92915050565b600060208284031215612c4157612c40612bc9565b5b6000612c4f84828501612c16565b91505092915050565b60008115159050919050565b612c6d81612c58565b82525050565b6000602082019050612c886000830184612c64565b92915050565b600081519050919050565b600082825260208201905092915050565b60005b83811015612cc8578082015181840152602081019050612cad565b60008484015250505050565b6000601f19601f8301169050919050565b6000612cf082612c8e565b612cfa8185612c99565b9350612d0a818560208601612caa565b612d1381612cd4565b840191505092915050565b60006020820190508181036000830152612d388184612ce5565b905092915050565b6000819050919050565b612d5381612d40565b8114612d5e57600080fd5b50565b600081359050612d7081612d4a565b92915050565b600060208284031215612d8c57612d8b612bc9565b5b6000612d9a84828501612d61565b91505092915050565b600073ffffffffffffffffffffffffffffffffffffffff82169050919050565b6000612dce82612da3565b9050919050565b612dde81612dc3565b82525050565b6000602082019050612df96000830184612dd5565b92915050565b612e0881612dc3565b8114612e1357600080fd5b50565b600081359050612e2581612dff565b92915050565b60008060408385031215612e4257612e41612bc9565b5b6000612e5085828601612e16565b9250506020612e6185828601612d61565b9150509250929050565b612e7481612d40565b82525050565b7f4e487b7100000000000000000000000000000000000000000000000000000000600052602160045260246000fd5b60038110612eba57612eb9612e7a565b5b50565b6000819050612ecb82612ea9565b919050565b6000612edb82612ebd565b9050919050565b612eeb81612ed0565b82525050565b600060e082019050612f06600083018a612e6b565b8181036020830152612f188189612ce5565b9050612f276040830188612ee2565b612f346060830187612e6b565b612f416080830186612e6b565b612f4e60a0830185612e6b565b612f5b60c0830184612dd5565b98975050505050505050565b600080600060608486031215612f8057612f7f612bc9565b5b6000612f8e86828701612e16565b9350506020612f9f86828701612e16565b9250506040612fb086828701612d61565b9150509250925092565b600060a082019050612fcf6000830188612e6b565b612fdc6020830187612e6b565b612fe96040830186612dd5565b612ff66060830185612e6b565b6130036080830184612c64565b9695505050505050565b6000806040838503121561302457613023612bc9565b5b600061303285828601612d61565b925050602061304385828601612d61565b9150509250929050565b60006020828403121561306357613062612bc9565b5b600061307184828501612e16565b91505092915050565b600060208201905061308f6000830184612e6b565b92915050565b61309e81612c58565b81146130a957600080fd5b50565b6000813590506130bb81613095565b92915050565b600080604083850312156130d8576130d7612bc9565b5b60006130e685828601612e16565b92505060206130f7858286016130ac565b9150509250929050565b600080fd5b600080fd5b7f4e487b7100000000000000000000000000000000000000000000000000000000600052604160045260246000fd5b61314382612cd4565b810181811067ffffffffffffffff821117156131625761316161310b565b5b80604052505050565b6000613175612bbf565b9050613181828261313a565b919050565b600067ffffffffffffffff8211156131a1576131a061310b565b5b6131aa82612cd4565b9050602081019050919050565b82818337600083830152505050565b60006131d96131d484613186565b61316b565b9050828152602081018484840111156131f5576131f4613106565b5b6132008482856131b7565b509392505050565b600082601f83011261321d5761321c613101565b5b813561322d8482602086016131c6565b91505092915050565b600080600080608085870312156132505761324f612bc9565b5b600061325e87828801612e16565b945050602061326f87828801612e16565b935050604061328087828801612d61565b925050606085013567ffffffffffffffff8111156132a1576132a0612bce565b5b6132ad87828801613208565b91505092959194509250565b600067ffffffffffffffff8211156132d4576132d361310b565b5b6132dd82612cd4565b9050602081019050919050565b60006132fd6132f8846132b9565b61316b565b90508281526020810184848401111561331957613318613106565b5b6133248482856131b7565b509392505050565b600082601f83011261334157613340613101565b5b81356133518482602086016132ea565b91505092915050565b6003811061336757600080fd5b50565b6000813590506133798161335a565b92915050565b6000806000806080858703121561339957613398612bc9565b5b600085013567ffffffffffffffff8111156133b7576133b6612bce565b5b6133c38782880161332c565b94505060206133d48782880161336a565b93505060406133e587828801612d61565b92505060606133f687828801612d61565b91505092959194509250565b6000806040838503121561341957613418612bc9565b5b600061342785828601612e16565b925050602061343885828601612e16565b9150509250929050565b7f4e487b7100000000000000000000000000000000000000000000000000000000600052602260045260246000fd5b6000600282049050600182168061348957607f821691505b60208210810361349c5761349b613442565b5b50919050565b7f5469636b657420646f6573206e6f742065786973740000000000000000000000600082015250565b60006134d8601583612c99565b91506134e3826134a2565b602082019050919050565b60006020820190508181036000830152613507816134cb565b9050919050565b7f5469636b6574206973206e6f7420666f722073616c6500000000000000000000600082015250565b6000613544601683612c99565b915061354f8261350e565b602082019050919050565b6000602082019050818103600083015261357381613537565b9050919050565b7f496e636f7272656374207061796d656e7420616d6f756e740000000000000000600082015250565b60006135b0601883612c99565b91506135bb8261357a565b602082019050919050565b600060208201905081810360008301526135df816135a3565b9050919050565b60006040820190506135fb6000830185612e6b565b6136086020830184612dd5565b9392505050565b60006060820190506136246000830186612dd5565b6136316020830185612e6b565b61363e6040830184612dd5565b949350505050565b7f596f7520617265206e6f7420746865206f776e6572206f66207468697320746960008201527f636b657400000000000000000000000000000000000000000000000000000000602082015250565b60006136a2602483612c99565b91506136ad82613646565b604082019050919050565b600060208201905081810360008301526136d181613695565b9050919050565b7f5469636b6574206973206e6f74206c697374656420666f7220726573616c6500600082015250565b600061370e601f83612c99565b9150613719826136d8565b602082019050919050565b6000602082019050818103600083015261373d81613701565b9050919050565b7f526573616c65207072696365206d75737420626520677265617465722074686160008201527f6e20300000000000000000000000000000000000000000000000000000000000602082015250565b60006137a0602383612c99565b91506137ab82613744565b604082019050919050565b600060208201905081810360008301526137cf81613793565b9050919050565b60006040820190506137eb6000830185612e6b565b6137f86020830184612e6b565b9392505050565b7f4576656e7420646f6573206e6f74206578697374000000000000000000000000600082015250565b6000613835601483612c99565b9150613840826137ff565b602082019050919050565b6000602082019050818103600083015261386481613828565b9050919050565b7f4576656e7420697320736f6c64206f7574000000000000000000000000000000600082015250565b60006138a1601183612c99565b91506138ac8261386b565b602082019050919050565b600060208201905081810360008301526138d081613894565b9050919050565b7f4e487b7100000000000000000000000000000000000000000000000000000000600052601160045260246000fd5b600061391182612d40565b91507fffffffffffffffffffffffffffffffffffffffffffffffffffffffffffffffff8203613943576139426138d7565b5b600182019050919050565b60006060820190506139636000830186612e6b565b6139706020830185612e6b565b61397d6040830184612dd5565b949350505050565b7f4361706163697479206d7573742062652067726561746572207468616e203000600082015250565b60006139bb601f83612c99565b91506139c682613985565b602082019050919050565b600060208201905081810360008301526139ea816139ae565b9050919050565b60008190508160005260206000209050919050565b60006020601f8301049050919050565b600082821b905092915050565b600060088302613a537fffffffffffffffffffffffffffffffffffffffffffffffffffffffffffffffff82613a16565b613a5d8683613a16565b95508019841693508086168417925050509392505050565b6000819050919050565b6000613a9a613a95613a9084612d40565b613a75565b612d40565b9050919050565b6000819050919050565b613ab483613a7f565b613ac8613ac082613aa1565b848454613a23565b825550505050565b600090565b613add613ad0565b613ae8818484613aab565b505050565b5b81811015613b0c57613b01600082613ad5565b600181019050613aee565b5050565b601f821115613b5157613b22816139f1565b613b2b84613a06565b81016020851015613b3a578190505b613b4e613b4685613a06565b830182613aed565b50505b505050565b600082821c905092915050565b6000613b7460001984600802613b56565b1980831691505092915050565b6000613b8d8383613b63565b9150826002028217905092915050565b613ba682612c8e565b67ffffffffffffffff811115613bbf57613bbe61310b565b5b613bc98254613471565b613bd4828285613b10565b600060209050601f831160018114613c075760008415613bf5578287015190505b613bff8582613b81565b865550613c67565b601f198416613c15866139f1565b60005b82811015613c3d57848901518255600182019150602085019450602081019050613c18565b86831015613c5a5784890151613c56601f891682613b63565b8355505b6001600288020188555050505b505050505050565b600060c082019050613c846000830189612e6b565b8181036020830152613c968188612ce5565b9050613ca56040830187612ee2565b613cb26060830186612e6b565b613cbf6080830185612e6b565b613ccc60a0830184612dd5565b979650505050505050565b600081905092915050565b6000613ced82612c8e565b613cf78185613cd7565b9350613d07818560208601612caa565b80840191505092915050565b6000613d1f8285613ce2565b9150613d2b8284613ce2565b91508190509392505050565b7f3f6576656e743d00000000000000000000000000000000000000000000000000600082015250565b6000613d6d600783613cd7565b9150613d7882613d37565b600782019050919050565b7f266e616d653d0000000000000000000000000000000000000000000000000000600082015250565b6000613db9600683613cd7565b9150613dc482613d83565b600682019050919050565b6000613ddb8287613ce2565b9150613de78286613ce2565b9150613df282613d60565b9150613dfe8285613ce2565b9150613e0982613dac565b9150613e158284613ce2565b915081905095945050505050565b600081519050919050565b600082825260208201905092915050565b6000613e4a82613e23565b613e548185613e2e565b9350613e64818560208601612caa565b613e6d81612cd4565b840191505092915050565b6000608082019050613e8d6000830187612dd5565b613e9a6020830186612dd5565b613ea76040830185612e6b565b8181036060830152613eb98184613e3f565b905095945050505050565b600081519050613ed381612bff565b92915050565b600060208284031215613eef57613eee612bc9565b5b6000613efd84828501613ec4565b91505092915050565b7f4e487b7100000000000000000000000000000000000000000000000000000000600052601260045260246000fd5b6000613f4082612d40565b9150613f4b83612d40565b925082613f5b57613f5a613f06565b5b828204905092915050565b6000613f7182612d40565b9150613f7c83612d40565b9250828203905081811115613f9457613f936138d7565b5b92915050565b6000613fa582612d40565b9150613fb083612d40565b9250828202613fbe81612d40565b91508282048414831517613fd557613fd46138d7565b5b5092915050565b600060ff82169050919050565b6000613ff482613fdc565b9150613fff83613fdc565b9250828201905060ff811115614018576140176138d7565b5b92915050565b7f4e487b7100000000000000000000000000000000000000000000000000000000600052603260045260246000fd5b60006040820190506140626000830185612dd5565b61406f6020830184612e6b565b939250505056fea26469706673582212202b698048d048f83ce137ddfe7e953ac45bcc8074781b12f90dda75fba4154a9b64736f6c634300081c0033",
    "linkReferences": {},
    "deployedLinkReferences": {}
}