{
     "_format": "hh-sol-artifact-1",
     "contractName": "NFTEventTicketing",
     "sourceName": "contracts/NFTEventTicketing.sol",
     "abi": [
          {
               "inputs": [],
               "stateMutability": "nonpayable",
               "type": "constructor"
          },
          {
               "inputs": [
                    {
                         "internalType": "address",
                         "name": "sender",
                         "type": "address"
                    },
                    {
                         "internalType": "uint256",
                         "name": "tokenId",
                         "type": "uint256"
                    },
                    {
                         "internalType": "address",
                         "name": "owner",
                         "type": "address"
                    }
               ],
               "name": "ERC721IncorrectOwner",
               "type": "error"
          },
          {
               "inputs": [
                    {
                         "internalType": "address",
                         "name": "operator",
                         "type": "address"
                    },
                    {
                         "internalType": "uint256",
                         "name": "tokenId",
                         "type": "uint256"
                    }
               ],
               "name": "ERC721InsufficientApproval",
               "type": "error"
          },
          {
               "inputs": [
                    {
                         "internalType": "address",
                         "name": "approver",
                         "type": "address"
                    }
               ],
               "name": "ERC721InvalidApprover",
               "type": "error"
          },
          {
               "inputs": [
                    {
                         "internalType": "address",
                         "name": "operator",
                         "type": "address"
                    }
               ],
               "name": "ERC721InvalidOperator",
               "type": "error"
          },
          {
               "inputs": [
                    {
                         "internalType": "address",
                         "name": "owner",
                         "type": "address"
                    }
               ],
               "name": "ERC721InvalidOwner",
               "type": "error"
          },
          {
               "inputs": [
                    {
                         "internalType": "address",
                         "name": "receiver",
                         "type": "address"
                    }
               ],
               "name": "ERC721InvalidReceiver",
               "type": "error"
          },
          {
               "inputs": [
                    {
                         "internalType": "address",
                         "name": "sender",
                         "type": "address"
                    }
               ],
               "name": "ERC721InvalidSender",
               "type": "error"
          },
          {
               "inputs": [
                    {
                         "internalType": "uint256",
                         "name": "tokenId",
                         "type": "uint256"
                    }
               ],
               "name": "ERC721NonexistentToken",
               "type": "error"
          },
          {
               "inputs": [
                    {
                         "internalType": "address",
                         "name": "owner",
                         "type": "address"
                    }
               ],
               "name": "OwnableInvalidOwner",
               "type": "error"
          },
          {
               "inputs": [
                    {
                         "internalType": "address",
                         "name": "account",
                         "type": "address"
                    }
               ],
               "name": "OwnableUnauthorizedAccount",
               "type": "error"
          },
          {
               "anonymous": false,
               "inputs": [
                    {
                         "indexed": true,
                         "internalType": "address",
                         "name": "owner",
                         "type": "address"
                    },
                    {
                         "indexed": true,
                         "internalType": "address",
                         "name": "approved",
                         "type": "address"
                    },
                    {
                         "indexed": true,
                         "internalType": "uint256",
                         "name": "tokenId",
                         "type": "uint256"
                    }
               ],
               "name": "Approval",
               "type": "event"
          },
          {
               "anonymous": false,
               "inputs": [
                    {
                         "indexed": true,
                         "internalType": "address",
                         "name": "owner",
                         "type": "address"
                    },
                    {
                         "indexed": true,
                         "internalType": "address",
                         "name": "operator",
                         "type": "address"
                    },
                    {
                         "indexed": false,
                         "internalType": "bool",
                         "name": "approved",
                         "type": "bool"
                    }
               ],
               "name": "ApprovalForAll",
               "type": "event"
          },
          {
               "anonymous": false,
               "inputs": [
                    {
                         "indexed": false,
                         "internalType": "uint256",
                         "name": "_fromTokenId",
                         "type": "uint256"
                    },
                    {
                         "indexed": false,
                         "internalType": "uint256",
                         "name": "_toTokenId",
                         "type": "uint256"
                    }
               ],
               "name": "BatchMetadataUpdate",
               "type": "event"
          },
          {
               "anonymous": false,
               "inputs": [
                    {
                         "indexed": false,
                         "internalType": "uint256",
                         "name": "eventId",
                         "type": "uint256"
                    },
                    {
                         "indexed": false,
                         "internalType": "string",
                         "name": "name",
                         "type": "string"
                    },
                    {
                         "indexed": false,
                         "internalType": "enum NFTEventTicketing.EventType",
                         "name": "eventType",
                         "type": "uint8"
                    },
                    {
                         "indexed": false,
                         "internalType": "uint256",
                         "name": "price",
                         "type": "uint256"
                    },
                    {
                         "indexed": false,
                         "internalType": "uint256",
                         "name": "capacity",
                         "type": "uint256"
                    },
                    {
                         "indexed": false,
                         "internalType": "address",
                         "name": "organizer",
                         "type": "address"
                    }
               ],
               "name": "EventCreated",
               "type": "event"
          },
          {
               "anonymous": false,
               "inputs": [
                    {
                         "indexed": false,
                         "internalType": "uint256",
                         "name": "_tokenId",
                         "type": "uint256"
                    }
               ],
               "name": "MetadataUpdate",
               "type": "event"
          },
          {
               "anonymous": false,
               "inputs": [
                    {
                         "indexed": true,
                         "internalType": "address",
                         "name": "previousOwner",
                         "type": "address"
                    },
                    {
                         "indexed": true,
                         "internalType": "address",
                         "name": "newOwner",
                         "type": "address"
                    }
               ],
               "name": "OwnershipTransferred",
               "type": "event"
          },
          {
               "anonymous": false,
               "inputs": [
                    {
                         "indexed": false,
                         "internalType": "uint256",
                         "name": "ticketId",
                         "type": "uint256"
                    },
                    {
                         "indexed": false,
                         "internalType": "uint256",
                         "name": "resalePrice",
                         "type": "uint256"
                    }
               ],
               "name": "TicketListedForResale",
               "type": "event"
          },
          {
               "anonymous": false,
               "inputs": [
                    {
                         "indexed": false,
                         "internalType": "uint256",
                         "name": "ticketId",
                         "type": "uint256"
                    },
                    {
                         "indexed": false,
                         "internalType": "uint256",
                         "name": "eventId",
                         "type": "uint256"
                    },
                    {
                         "indexed": false,
                         "internalType": "address",
                         "name": "buyer",
                         "type": "address"
                    }
               ],
               "name": "TicketPurchased",
               "type": "event"
          },
          {
               "anonymous": false,
               "inputs": [
                    {
                         "indexed": false,
                         "internalType": "uint256",
                         "name": "ticketId",
                         "type": "uint256"
                    },
                    {
                         "indexed": false,
                         "internalType": "address",
                         "name": "newOwner",
                         "type": "address"
                    }
               ],
               "name": "TicketResold",
               "type": "event"
          },
          {
               "anonymous": false,
               "inputs": [
                    {
                         "indexed": true,
                         "internalType": "address",
                         "name": "from",
                         "type": "address"
                    },
                    {
                         "indexed": true,
                         "internalType": "address",
                         "name": "to",
                         "type": "address"
                    },
                    {
                         "indexed": true,
                         "internalType": "uint256",
                         "name": "tokenId",
                         "type": "uint256"
                    }
               ],
               "name": "Transfer",
               "type": "event"
          },
          {
               "inputs": [
                    {
                         "internalType": "address",
                         "name": "to",
                         "type": "address"
                    },
                    {
                         "internalType": "uint256",
                         "name": "tokenId",
                         "type": "uint256"
                    }
               ],
               "name": "approve",
               "outputs": [],
               "stateMutability": "nonpayable",
               "type": "function"
          },
          {
               "inputs": [
                    {
                         "internalType": "uint256",
                         "name": "eventId",
                         "type": "uint256"
                    },
                    {
                         "internalType": "uint256",
                         "name": "teamIndex",
                         "type": "uint256"
                    }
               ],
               "name": "awardPrize",
               "outputs": [],
               "stateMutability": "nonpayable",
               "type": "function"
          },
          {
               "inputs": [
                    {
                         "internalType": "address",
                         "name": "owner",
                         "type": "address"
                    }
               ],
               "name": "balanceOf",
               "outputs": [
                    {
                         "internalType": "uint256",
                         "name": "",
                         "type": "uint256"
                    }
               ],
               "stateMutability": "view",
               "type": "function"
          },
          {
               "inputs": [
                    {
                         "internalType": "uint256",
                         "name": "ticketId",
                         "type": "uint256"
                    }
               ],
               "name": "buyResaleTicket",
               "outputs": [],
               "stateMutability": "payable",
               "type": "function"
          },
          {
               "inputs": [
                    {
                         "internalType": "uint256",
                         "name": "eventId",
                         "type": "uint256"
                    }
               ],
               "name": "buyTicket",
               "outputs": [],
               "stateMutability": "payable",
               "type": "function"
          },
          {
               "inputs": [
                    {
                         "internalType": "uint256",
                         "name": "ticketId",
                         "type": "uint256"
                    }
               ],
               "name": "cancelResaleListing",
               "outputs": [],
               "stateMutability": "nonpayable",
               "type": "function"
          },
          {
               "inputs": [
                    {
                         "internalType": "string",
                         "name": "name",
                         "type": "string"
                    },
                    {
                         "internalType": "enum NFTEventTicketing.EventType",
                         "name": "eventType",
                         "type": "uint8"
                    },
                    {
                         "internalType": "uint256",
                         "name": "price",
                         "type": "uint256"
                    },
                    {
                         "internalType": "uint256",
                         "name": "capacity",
                         "type": "uint256"
                    }
               ],
               "name": "createEvent",
               "outputs": [],
               "stateMutability": "nonpayable",
               "type": "function"
          },
          {
               "inputs": [
                    {
                         "internalType": "uint256",
                         "name": "",
                         "type": "uint256"
                    }
               ],
               "name": "events",
               "outputs": [
                    {
                         "internalType": "uint256",
                         "name": "id",
                         "type": "uint256"
                    },
                    {
                         "internalType": "string",
                         "name": "name",
                         "type": "string"
                    },
                    {
                         "internalType": "enum NFTEventTicketing.EventType",
                         "name": "eventType",
                         "type": "uint8"
                    },
                    {
                         "internalType": "uint256",
                         "name": "price",
                         "type": "uint256"
                    },
                    {
                         "internalType": "uint256",
                         "name": "capacity",
                         "type": "uint256"
                    },
                    {
                         "internalType": "uint256",
                         "name": "ticketsSold",
                         "type": "uint256"
                    },
                    {
                         "internalType": "address",
                         "name": "organizer",
                         "type": "address"
                    }
               ],
               "stateMutability": "view",
               "type": "function"
          },
          {
               "inputs": [
                    {
                         "internalType": "uint256",
                         "name": "eventId",
                         "type": "uint256"
                    }
               ],
               "name": "fundPrizePool",
               "outputs": [],
               "stateMutability": "payable",
               "type": "function"
          },
          {
               "inputs": [
                    {
                         "internalType": "uint256",
                         "name": "tokenId",
                         "type": "uint256"
                    }
               ],
               "name": "getApproved",
               "outputs": [
                    {
                         "internalType": "address",
                         "name": "",
                         "type": "address"
                    }
               ],
               "stateMutability": "view",
               "type": "function"
          },
          {
               "inputs": [
                    {
                         "internalType": "uint256",
                         "name": "",
                         "type": "uint256"
                    },
                    {
                         "internalType": "uint256",
                         "name": "",
                         "type": "uint256"
                    }
               ],
               "name": "hackathonTeams",
               "outputs": [
                    {
                         "internalType": "string",
                         "name": "name",
                         "type": "string"
                    }
               ],
               "stateMutability": "view",
               "type": "function"
          },
          {
               "inputs": [
                    {
                         "internalType": "address",
                         "name": "owner",
                         "type": "address"
                    },
                    {
                         "internalType": "address",
                         "name": "operator",
                         "type": "address"
                    }
               ],
               "name": "isApprovedForAll",
               "outputs": [
                    {
                         "internalType": "bool",
                         "name": "",
                         "type": "bool"
                    }
               ],
               "stateMutability": "view",
               "type": "function"
          },
          {
               "inputs": [
                    {
                         "internalType": "uint256",
                         "name": "ticketId",
                         "type": "uint256"
                    },
                    {
                         "internalType": "uint256",
                         "name": "resalePrice",
                         "type": "uint256"
                    }
               ],
               "name": "listTicketForResale",
               "outputs": [],
               "stateMutability": "nonpayable",
               "type": "function"
          },
          {
               "inputs": [],
               "name": "name",
               "outputs": [
                    {
                         "internalType": "string",
                         "name": "",
                         "type": "string"
                    }
               ],
               "stateMutability": "view",
               "type": "function"
          },
          {
               "inputs": [],
               "name": "owner",
               "outputs": [
                    {
                         "internalType": "address",
                         "name": "",
                         "type": "address"
                    }
               ],
               "stateMutability": "view",
               "type": "function"
          },
          {
               "inputs": [
                    {
                         "internalType": "uint256",
                         "name": "tokenId",
                         "type": "uint256"
                    }
               ],
               "name": "ownerOf",
               "outputs": [
                    {
                         "internalType": "address",
                         "name": "",
                         "type": "address"
                    }
               ],
               "stateMutability": "view",
               "type": "function"
          },
          {
               "inputs": [
                    {
                         "internalType": "uint256",
                         "name": "",
                         "type": "uint256"
                    }
               ],
               "name": "prizePools",
               "outputs": [
                    {
                         "internalType": "uint256",
                         "name": "",
                         "type": "uint256"
                    }
               ],
               "stateMutability": "view",
               "type": "function"
          },
          {
               "inputs": [
                    {
                         "internalType": "uint256",
                         "name": "eventId",
                         "type": "uint256"
                    },
                    {
                         "internalType": "string",
                         "name": "teamName",
                         "type": "string"
                    },
                    {
                         "internalType": "address[]",
                         "name": "members",
                         "type": "address[]"
                    }
               ],
               "name": "registerTeam",
               "outputs": [],
               "stateMutability": "nonpayable",
               "type": "function"
          },
          {
               "inputs": [],
               "name": "renounceOwnership",
               "outputs": [],
               "stateMutability": "nonpayable",
               "type": "function"
          },
          {
               "inputs": [
                    {
                         "internalType": "address",
                         "name": "from",
                         "type": "address"
                    },
                    {
                         "internalType": "address",
                         "name": "to",
                         "type": "address"
                    },
                    {
                         "internalType": "uint256",
                         "name": "tokenId",
                         "type": "uint256"
                    }
               ],
               "name": "safeTransferFrom",
               "outputs": [],
               "stateMutability": "nonpayable",
               "type": "function"
          },
          {
               "inputs": [
                    {
                         "internalType": "address",
                         "name": "from",
                         "type": "address"
                    },
                    {
                         "internalType": "address",
                         "name": "to",
                         "type": "address"
                    },
                    {
                         "internalType": "uint256",
                         "name": "tokenId",
                         "type": "uint256"
                    },
                    {
                         "internalType": "bytes",
                         "name": "data",
                         "type": "bytes"
                    }
               ],
               "name": "safeTransferFrom",
               "outputs": [],
               "stateMutability": "nonpayable",
               "type": "function"
          },
          {
               "inputs": [
                    {
                         "internalType": "address",
                         "name": "operator",
                         "type": "address"
                    },
                    {
                         "internalType": "bool",
                         "name": "approved",
                         "type": "bool"
                    }
               ],
               "name": "setApprovalForAll",
               "outputs": [],
               "stateMutability": "nonpayable",
               "type": "function"
          },
          {
               "inputs": [
                    {
                         "internalType": "bytes4",
                         "name": "interfaceId",
                         "type": "bytes4"
                    }
               ],
               "name": "supportsInterface",
               "outputs": [
                    {
                         "internalType": "bool",
                         "name": "",
                         "type": "bool"
                    }
               ],
               "stateMutability": "view",
               "type": "function"
          },
          {
               "inputs": [],
               "name": "symbol",
               "outputs": [
                    {
                         "internalType": "string",
                         "name": "",
                         "type": "string"
                    }
               ],
               "stateMutability": "view",
               "type": "function"
          },
          {
               "inputs": [
                    {
                         "internalType": "uint256",
                         "name": "",
                         "type": "uint256"
                    }
               ],
               "name": "tickets",
               "outputs": [
                    {
                         "internalType": "uint256",
                         "name": "id",
                         "type": "uint256"
                    },
                    {
                         "internalType": "uint256",
                         "name": "eventId",
                         "type": "uint256"
                    },
                    {
                         "internalType": "address",
                         "name": "owner",
                         "type": "address"
                    },
                    {
                         "internalType": "uint256",
                         "name": "resalePrice",
                         "type": "uint256"
                    },
                    {
                         "internalType": "bool",
                         "name": "forSale",
                         "type": "bool"
                    }
               ],
               "stateMutability": "view",
               "type": "function"
          },
          {
               "inputs": [
                    {
                         "internalType": "uint256",
                         "name": "tokenId",
                         "type": "uint256"
                    }
               ],
               "name": "tokenURI",
               "outputs": [
                    {
                         "internalType": "string",
                         "name": "",
                         "type": "string"
                    }
               ],
               "stateMutability": "view",
               "type": "function"
          },
          {
               "inputs": [
                    {
                         "internalType": "address",
                         "name": "from",
                         "type": "address"
                    },
                    {
                         "internalType": "address",
                         "name": "to",
                         "type": "address"
                    },
                    {
                         "internalType": "uint256",
                         "name": "tokenId",
                         "type": "uint256"
                    }
               ],
               "name": "transferFrom",
               "outputs": [],
               "stateMutability": "nonpayable",
               "type": "function"
          },
          {
               "inputs": [
                    {
                         "internalType": "address",
                         "name": "newOwner",
                         "type": "address"
                    }
               ],
               "name": "transferOwnership",
               "outputs": [],
               "stateMutability": "nonpayable",
               "type": "function"
          },
          {
               "inputs": [
                    {
                         "internalType": "uint256",
                         "name": "eventId",
                         "type": "uint256"
                    }
               ],
               "name": "withdrawPrizePool",
               "outputs": [],
               "stateMutability": "nonpayable",
               "type": "function"
          }
     ],
     "bytecode": "0x608060405234801561001057600080fd5b50336040518060400160405280600e81526020017f4576656e745469636b65744e46540000000000000000000000000000000000008152506040518060400160405280600581526020017f45544e4654000000000000000000000000000000000000000000000000000000815250816000908161008d919061043d565b50806001908161009d919061043d565b505050600073ffffffffffffffffffffffffffffffffffffffff168173ffffffffffffffffffffffffffffffffffffffff16036101125760006040517f1e4fbdf70000000000000000000000000000000000000000000000000000000081526004016101099190610550565b60405180910390fd5b6101218161012760201b60201c565b5061056b565b6000600760009054906101000a900473ffffffffffffffffffffffffffffffffffffffff16905081600760006101000a81548173ffffffffffffffffffffffffffffffffffffffff021916908373ffffffffffffffffffffffffffffffffffffffff1602179055508173ffffffffffffffffffffffffffffffffffffffff168173ffffffffffffffffffffffffffffffffffffffff167f8be0079c531659141344cd1fd0a4f28419497f9722a3daafe3b4186f6b6457e060405160405180910390a35050565b600081519050919050565b7f4e487b7100000000000000000000000000000000000000000000000000000000600052604160045260246000fd5b7f4e487b7100000000000000000000000000000000000000000000000000000000600052602260045260246000fd5b6000600282049050600182168061026e57607f821691505b60208210810361028157610280610227565b5b50919050565b60008190508160005260206000209050919050565b60006020601f8301049050919050565b600082821b905092915050565b6000600883026102e97fffffffffffffffffffffffffffffffffffffffffffffffffffffffffffffffff826102ac565b6102f386836102ac565b95508019841693508086168417925050509392505050565b6000819050919050565b6000819050919050565b600061033a6103356103308461030b565b610315565b61030b565b9050919050565b6000819050919050565b6103548361031f565b61036861036082610341565b8484546102b9565b825550505050565b600090565b61037d610370565b61038881848461034b565b505050565b5b818110156103ac576103a1600082610375565b60018101905061038e565b5050565b601f8211156103f1576103c281610287565b6103cb8461029c565b810160208510156103da578190505b6103ee6103e68561029c565b83018261038d565b50505b505050565b600082821c905092915050565b6000610414600019846008026103f6565b1980831691505092915050565b600061042d8383610403565b9150826002028217905092915050565b610446826101ed565b67ffffffffffffffff81111561045f5761045e6101f8565b5b6104698254610256565b6104748282856103b0565b600060209050601f8311600181146104a75760008415610495578287015190505b61049f8582610421565b865550610507565b601f1984166104b586610287565b60005b828110156104dd578489015182556001820191506020850194506020810190506104b8565b868310156104fa57848901516104f6601f891682610403565b8355505b6001600288020188555050505b505050505050565b600073ffffffffffffffffffffffffffffffffffffffff82169050919050565b600061053a8261050f565b9050919050565b61054a8161052f565b82525050565b60006020820190506105656000830184610541565b92915050565b614fb78061057a6000396000f3fe6080604052600436106101c25760003560e01c80636352211e116100f7578063b88d4fde11610095578063e0bcea8d11610064578063e0bcea8d1461064c578063e985e9c514610668578063eddad394146106a5578063f2fde38b146106e2576101c2565b8063b88d4fde14610594578063c2e93021146105bd578063c3b4ff38146105e6578063c87b56dd1461060f576101c2565b8063715018a6116100d1578063715018a6146104fe5780638da5cb5b1461051557806395d89b4114610540578063a22cb4651461056b576101c2565b80636352211e1461046857806367dd74ca146104a557806370a08231146104c1576101c2565b806323b872dd116101645780634b399a301161013e5780634b399a301461039857806350b44712146103c15780636053b0ef1461040257806362a0fef61461042b576101c2565b806323b872dd1461031d578063384759341461034657806342842e0e1461036f576101c2565b8063081812fc116101a0578063081812fc14610258578063095ea7b3146102955780630b791430146102be5780631d9c5d5c14610301576101c2565b806301ffc9a7146101c757806305e1b1151461020457806306fdde031461022d575b600080fd5b3480156101d357600080fd5b506101ee60048036038101906101e991906136bb565b61070b565b6040516101fb9190613703565b60405180910390f35b34801561021057600080fd5b5061022b60048036038101906102269190613754565b61076c565b005b34801561023957600080fd5b50610242610915565b60405161024f9190613811565b60405180910390f35b34801561026457600080fd5b5061027f600480360381019061027a9190613754565b6109a7565b60405161028c9190613874565b60405180910390f35b3480156102a157600080fd5b506102bc60048036038101906102b791906138bb565b6109c3565b005b3480156102ca57600080fd5b506102e560048036038101906102e09190613754565b6109d9565b6040516102f89796959493929190613981565b60405180910390f35b61031b60048036038101906103169190613754565b610ad0565b005b34801561032957600080fd5b50610344600480360381019061033f91906139f7565b610ce9565b005b34801561035257600080fd5b5061036d60048036038101906103689190613754565b610deb565b005b34801561037b57600080fd5b50610396600480360381019061039191906139f7565b610ef4565b005b3480156103a457600080fd5b506103bf60048036038101906103ba9190613a4a565b610f14565b005b3480156103cd57600080fd5b506103e860048036038101906103e39190613754565b61118f565b6040516103f9959493929190613a8a565b60405180910390f35b34801561040e57600080fd5b5061042960048036038101906104249190613a4a565b6111f2565b005b34801561043757600080fd5b50610452600480360381019061044d9190613a4a565b611326565b60405161045f9190613811565b60405180910390f35b34801561047457600080fd5b5061048f600480360381019061048a9190613754565b6113e9565b60405161049c9190613874565b60405180910390f35b6104bf60048036038101906104ba9190613754565b6113fb565b005b3480156104cd57600080fd5b506104e860048036038101906104e39190613add565b611759565b6040516104f59190613b0a565b60405180910390f35b34801561050a57600080fd5b50610513611813565b005b34801561052157600080fd5b5061052a611827565b6040516105379190613874565b60405180910390f35b34801561054c57600080fd5b50610555611851565b6040516105629190613811565b60405180910390f35b34801561057757600080fd5b50610592600480360381019061058d9190613b51565b6118e3565b005b3480156105a057600080fd5b506105bb60048036038101906105b69190613cc6565b6118f9565b005b3480156105c957600080fd5b506105e460048036038101906105df9190613e0f565b61191e565b005b3480156105f257600080fd5b5061060d60048036038101906106089190613f5a565b611aef565b005b34801561061b57600080fd5b5061063660048036038101906106319190613754565b611cec565b6040516106439190613811565b60405180910390f35b61066660048036038101906106619190613754565b611dff565b005b34801561067457600080fd5b5061068f600480360381019061068a9190613fe5565b611f59565b60405161069c9190613703565b60405180910390f35b3480156106b157600080fd5b506106cc60048036038101906106c79190613754565b611fed565b6040516106d99190613b0a565b60405180910390f35b3480156106ee57600080fd5b5061070960048036038101906107049190613add565b612005565b005b6000634906490660e01b7bffffffffffffffffffffffffffffffffffffffffffffffffffffffff1916827bffffffffffffffffffffffffffffffffffffffffffffffffffffffff1916148061076557506107648261208b565b5b9050919050565b60028081111561077f5761077e61390a565b5b600a600083815260200190815260200160002060020160009054906101000a900460ff1660028111156107b5576107b461390a565b5b146107f5576040517f08c379a00000000000000000000000000000000000000000000000000000000081526004016107ec90614071565b60405180910390fd5b3373ffffffffffffffffffffffffffffffffffffffff16600a600083815260200190815260200160002060060160009054906101000a900473ffffffffffffffffffffffffffffffffffffffff1673ffffffffffffffffffffffffffffffffffffffff1614610899576040517f08c379a0000000000000000000000000000000000000000000000000000000008152600401610890906140dd565b60405180910390fd5b6000600d60008381526020019081526020016000205490506000600d6000848152602001908152602001600020819055503373ffffffffffffffffffffffffffffffffffffffff166108fc829081150290604051600060405180830381858888f19350505050158015610910573d6000803e3d6000fd5b505050565b6060600080546109249061412c565b80601f01602080910402602001604051908101604052809291908181526020018280546109509061412c565b801561099d5780601f106109725761010080835404028352916020019161099d565b820191906000526020600020905b81548152906001019060200180831161098057829003601f168201915b5050505050905090565b60006109b28261216d565b506109bc826121f5565b9050919050565b6109d582826109d0612232565b61223a565b5050565b600a602052806000526040600020600091509050806000015490806001018054610a029061412c565b80601f0160208091040260200160405190810160405280929190818152602001828054610a2e9061412c565b8015610a7b5780601f10610a5057610100808354040283529160200191610a7b565b820191906000526020600020905b815481529060010190602001808311610a5e57829003601f168201915b5050505050908060020160009054906101000a900460ff16908060030154908060040154908060050154908060060160009054906101000a900473ffffffffffffffffffffffffffffffffffffffff16905087565b610ad98161224c565b610b18576040517f08c379a0000000000000000000000000000000000000000000000000000000008152600401610b0f906141a9565b60405180910390fd5b6000600b600083815260200190815260200160002090508060040160009054906101000a900460ff16610b80576040517f08c379a0000000000000000000000000000000000000000000000000000000008152600401610b7790614215565b60405180910390fd5b80600301543414610bc6576040517f08c379a0000000000000000000000000000000000000000000000000000000008152600401610bbd90614281565b60405180910390fd5b60008160020160009054906101000a900473ffffffffffffffffffffffffffffffffffffffff169050338260020160006101000a81548173ffffffffffffffffffffffffffffffffffffffff021916908373ffffffffffffffffffffffffffffffffffffffff16021790555060008260040160006101000a81548160ff02191690831515021790555060008260030181905550610c6481338561226f565b8073ffffffffffffffffffffffffffffffffffffffff166108fc349081150290604051600060405180830381858888f19350505050158015610caa573d6000803e3d6000fd5b507fc0e2772be7cecf9477b91086d97e2d0d8008fe6a87446496065bdfef589adca18333604051610cdc9291906142a1565b60405180910390a1505050565b600073ffffffffffffffffffffffffffffffffffffffff168273ffffffffffffffffffffffffffffffffffffffff1603610d5b5760006040517f64a0ae92000000000000000000000000000000000000000000000000000000008152600401610d529190613874565b60405180910390fd5b6000610d6f8383610d6a612232565b6123dc565b90508373ffffffffffffffffffffffffffffffffffffffff168173ffffffffffffffffffffffffffffffffffffffff1614610de5578382826040517f64283d7b000000000000000000000000000000000000000000000000000000008152600401610ddc939291906142ca565b60405180910390fd5b50505050565b3373ffffffffffffffffffffffffffffffffffffffff16610e0b826113e9565b73ffffffffffffffffffffffffffffffffffffffff1614610e61576040517f08c379a0000000000000000000000000000000000000000000000000000000008152600401610e5890614373565b60405180910390fd5b6000600b600083815260200190815260200160002090508060040160009054906101000a900460ff16610ec9576040517f08c379a0000000000000000000000000000000000000000000000000000000008152600401610ec0906143df565b60405180910390fd5b60008160040160006101000a81548160ff021916908315150217905550600081600301819055505050565b610f0f838383604051806020016040528060008152506118f9565b505050565b600280811115610f2757610f2661390a565b5b600a600084815260200190815260200160002060020160009054906101000a900460ff166002811115610f5d57610f5c61390a565b5b14610f9d576040517f08c379a0000000000000000000000000000000000000000000000000000000008152600401610f9490614071565b60405180910390fd5b3373ffffffffffffffffffffffffffffffffffffffff16600a600084815260200190815260200160002060060160009054906101000a900473ffffffffffffffffffffffffffffffffffffffff1673ffffffffffffffffffffffffffffffffffffffff1614611041576040517f08c379a00000000000000000000000000000000000000000000000000000000081526004016110389061444b565b60405180910390fd5b600c6000838152602001908152602001600020805490508110611099576040517f08c379a0000000000000000000000000000000000000000000000000000000008152600401611090906144b7565b60405180910390fd5b6000600c600084815260200190815260200160002082815481106110c0576110bf6144d7565b5b906000526020600020906002020190506000600d60008581526020019081526020016000205490506000600d60008681526020019081526020016000208190555081600101600081548110611118576111176144d7565b5b9060005260206000200160009054906101000a900473ffffffffffffffffffffffffffffffffffffffff1673ffffffffffffffffffffffffffffffffffffffff166108fc829081150290604051600060405180830381858888f19350505050158015611188573d6000803e3d6000fd5b5050505050565b600b6020528060005260406000206000915090508060000154908060010154908060020160009054906101000a900473ffffffffffffffffffffffffffffffffffffffff16908060030154908060040160009054906101000a900460ff16905085565b3373ffffffffffffffffffffffffffffffffffffffff16611212836113e9565b73ffffffffffffffffffffffffffffffffffffffff1614611268576040517f08c379a000000000000000000000000000000000000000000000000000000000815260040161125f90614373565b60405180910390fd5b600081116112ab576040517f08c379a00000000000000000000000000000000000000000000000000000000081526004016112a290614578565b60405180910390fd5b6000600b6000848152602001908152602001600020905081816003018190555060018160040160006101000a81548160ff0219169083151502179055507f2d8cbebfd87cb19b7bed949f9c8d5a80d939133966ef331ac575d69160ea04658383604051611319929190614598565b60405180910390a1505050565b600c602052816000526040600020818154811061134257600080fd5b9060005260206000209060020201600091509150508060000180546113669061412c565b80601f01602080910402602001604051908101604052809291908181526020018280546113929061412c565b80156113df5780601f106113b4576101008083540402835291602001916113df565b820191906000526020600020905b8154815290600101906020018083116113c257829003601f168201915b5050505050905081565b60006113f48261216d565b9050919050565b6000600a600083815260200190815260200160002090506000816000015403611459576040517f08c379a00000000000000000000000000000000000000000000000000000000081526004016114509061460d565b60405180910390fd5b80600401548160050154106114a3576040517f08c379a000000000000000000000000000000000000000000000000000000000815260040161149a90614679565b60405180910390fd5b806003015434146114e9576040517f08c379a00000000000000000000000000000000000000000000000000000000081526004016114e090614281565b60405180910390fd5b600960008154809291906114fc906146c8565b9190505550600060095490506040518060a001604052808281526020018481526020013373ffffffffffffffffffffffffffffffffffffffff1681526020016000815260200160001515815250600b6000838152602001908152602001600020600082015181600001556020820151816001015560408201518160020160006101000a81548173ffffffffffffffffffffffffffffffffffffffff021916908373ffffffffffffffffffffffffffffffffffffffff1602179055506060820151816003015560808201518160040160006101000a81548160ff0219169083151502179055509050508160050160008154809291906115f9906146c8565b9190505550611608338261252a565b60006116a1828585600101805461161e9061412c565b80601f016020809104026020016040519081016040528092919081815260200182805461164a9061412c565b80156116975780601f1061166c57610100808354040283529160200191611697565b820191906000526020600020905b81548152906001019060200180831161167a57829003601f168201915b5050505050612623565b90506116ad82826126ab565b8260060160009054906101000a900473ffffffffffffffffffffffffffffffffffffffff1673ffffffffffffffffffffffffffffffffffffffff166108fc349081150290604051600060405180830381858888f19350505050158015611717573d6000803e3d6000fd5b507f94c5953e15f54d38b82a662bdd5739fc91af3a23d3ef7e67269dfaeee71a813c82853360405161174b93929190614710565b60405180910390a150505050565b60008073ffffffffffffffffffffffffffffffffffffffff168273ffffffffffffffffffffffffffffffffffffffff16036117cc5760006040517f89c62b640000000000000000000000000000000000000000000000000000000081526004016117c39190613874565b60405180910390fd5b600360008373ffffffffffffffffffffffffffffffffffffffff1673ffffffffffffffffffffffffffffffffffffffff168152602001908152602001600020549050919050565b61181b612707565b611825600061278e565b565b6000600760009054906101000a900473ffffffffffffffffffffffffffffffffffffffff16905090565b6060600180546118609061412c565b80601f016020809104026020016040519081016040528092919081815260200182805461188c9061412c565b80156118d95780601f106118ae576101008083540402835291602001916118d9565b820191906000526020600020905b8154815290600101906020018083116118bc57829003601f168201915b5050505050905090565b6118f56118ee612232565b8383612854565b5050565b611904848484610ce9565b61191861190f612232565b858585856129c3565b50505050565b60008111611961576040517f08c379a000000000000000000000000000000000000000000000000000000000815260040161195890614793565b60405180910390fd5b60086000815480929190611974906146c8565b9190505550600060085490506040518060e001604052808281526020018681526020018560028111156119aa576119a961390a565b5b8152602001848152602001838152602001600081526020013373ffffffffffffffffffffffffffffffffffffffff16815250600a6000838152602001908152602001600020600082015181600001556020820151816001019081611a0e919061495f565b5060408201518160020160006101000a81548160ff02191690836002811115611a3a57611a3961390a565b5b0217905550606082015181600301556080820151816004015560a0820151816005015560c08201518160060160006101000a81548173ffffffffffffffffffffffffffffffffffffffff021916908373ffffffffffffffffffffffffffffffffffffffff1602179055509050507fde958b56325d663bb83f2836d1b9099bd2fe7c65ca1b7d93a97619fcb475240c818686868633604051611ae096959493929190614a31565b60405180910390a15050505050565b600280811115611b0257611b0161390a565b5b600a600085815260200190815260200160002060020160009054906101000a900460ff166002811115611b3857611b3761390a565b5b14611b78576040517f08c379a0000000000000000000000000000000000000000000000000000000008152600401611b6f90614ae5565b60405180910390fd5b600073ffffffffffffffffffffffffffffffffffffffff16600a600085815260200190815260200160002060060160009054906101000a900473ffffffffffffffffffffffffffffffffffffffff1673ffffffffffffffffffffffffffffffffffffffff1603611c1d576040517f08c379a0000000000000000000000000000000000000000000000000000000008152600401611c149061460d565b60405180910390fd5b6000815111611c61576040517f08c379a0000000000000000000000000000000000000000000000000000000008152600401611c5890614b51565b60405180910390fd5b600c600084815260200190815260200160002060405180604001604052808481526020018381525090806001815401808255809150506001900390600052602060002090600202016000909190919091506000820151816000019081611cc7919061495f565b506020820151816001019080519060200190611ce49291906135a8565b505050505050565b6060611cf78261216d565b506000600660008481526020019081526020016000208054611d189061412c565b80601f0160208091040260200160405190810160405280929190818152602001828054611d449061412c565b8015611d915780601f10611d6657610100808354040283529160200191611d91565b820191906000526020600020905b815481529060010190602001808311611d7457829003601f168201915b505050505090506000611da2612b74565b90506000815103611db7578192505050611dfa565b600082511115611dec578082604051602001611dd4929190614bad565b60405160208183030381529060405292505050611dfa565b611df584612b8b565b925050505b919050565b600280811115611e1257611e1161390a565b5b600a600083815260200190815260200160002060020160009054906101000a900460ff166002811115611e4857611e4761390a565b5b14611e88576040517f08c379a0000000000000000000000000000000000000000000000000000000008152600401611e7f90614071565b60405180910390fd5b3373ffffffffffffffffffffffffffffffffffffffff16600a600083815260200190815260200160002060060160009054906101000a900473ffffffffffffffffffffffffffffffffffffffff1673ffffffffffffffffffffffffffffffffffffffff1614611f2c576040517f08c379a0000000000000000000000000000000000000000000000000000000008152600401611f2390614c1d565b60405180910390fd5b34600d60008381526020019081526020016000206000828254611f4f9190614c3d565b9250508190555050565b6000600560008473ffffffffffffffffffffffffffffffffffffffff1673ffffffffffffffffffffffffffffffffffffffff16815260200190815260200160002060008373ffffffffffffffffffffffffffffffffffffffff1673ffffffffffffffffffffffffffffffffffffffff16815260200190815260200160002060009054906101000a900460ff16905092915050565b600d6020528060005260406000206000915090505481565b61200d612707565b600073ffffffffffffffffffffffffffffffffffffffff168173ffffffffffffffffffffffffffffffffffffffff160361207f5760006040517f1e4fbdf70000000000000000000000000000000000000000000000000000000081526004016120769190613874565b60405180910390fd5b6120888161278e565b50565b60007f80ac58cd000000000000000000000000000000000000000000000000000000007bffffffffffffffffffffffffffffffffffffffffffffffffffffffff1916827bffffffffffffffffffffffffffffffffffffffffffffffffffffffff1916148061215657507f5b5e139f000000000000000000000000000000000000000000000000000000007bffffffffffffffffffffffffffffffffffffffffffffffffffffffff1916827bffffffffffffffffffffffffffffffffffffffffffffffffffffffff1916145b80612166575061216582612bf4565b5b9050919050565b60008061217983612c5e565b9050600073ffffffffffffffffffffffffffffffffffffffff168173ffffffffffffffffffffffffffffffffffffffff16036121ec57826040517f7e2732890000000000000000000000000000000000000000000000000000000081526004016121e39190613b0a565b60405180910390fd5b80915050919050565b60006004600083815260200190815260200160002060009054906101000a900473ffffffffffffffffffffffffffffffffffffffff169050919050565b600033905090565b6122478383836001612c9b565b505050565b600080600b60008481526020019081526020016000206000015414159050919050565b600073ffffffffffffffffffffffffffffffffffffffff168273ffffffffffffffffffffffffffffffffffffffff16036122e15760006040517f64a0ae920000000000000000000000000000000000000000000000000000000081526004016122d89190613874565b60405180910390fd5b60006122ef838360006123dc565b9050600073ffffffffffffffffffffffffffffffffffffffff168173ffffffffffffffffffffffffffffffffffffffff160361236257816040517f7e2732890000000000000000000000000000000000000000000000000000000081526004016123599190613b0a565b60405180910390fd5b8373ffffffffffffffffffffffffffffffffffffffff168173ffffffffffffffffffffffffffffffffffffffff16146123d6578382826040517f64283d7b0000000000000000000000000000000000000000000000000000000081526004016123cd939291906142ca565b60405180910390fd5b50505050565b6000806123ea858585612e60565b9050600073ffffffffffffffffffffffffffffffffffffffff168173ffffffffffffffffffffffffffffffffffffffff16141580156124565750600073ffffffffffffffffffffffffffffffffffffffff168573ffffffffffffffffffffffffffffffffffffffff1614155b801561247957506000600b60008681526020019081526020016000206000015414155b1561251f5784600b600086815260200190815260200160002060020160006101000a81548173ffffffffffffffffffffffffffffffffffffffff021916908373ffffffffffffffffffffffffffffffffffffffff1602179055506000600b600086815260200190815260200160002060040160006101000a81548160ff0219169083151502179055506000600b6000868152602001908152602001600020600301819055505b809150509392505050565b600073ffffffffffffffffffffffffffffffffffffffff168273ffffffffffffffffffffffffffffffffffffffff160361259c5760006040517f64a0ae920000000000000000000000000000000000000000000000000000000081526004016125939190613874565b60405180910390fd5b60006125aa838360006123dc565b9050600073ffffffffffffffffffffffffffffffffffffffff168173ffffffffffffffffffffffffffffffffffffffff161461261e5760006040517f73c6ac6e0000000000000000000000000000000000000000000000000000000081526004016126159190613874565b60405180910390fd5b505050565b606060006040518060400160405280602081526020017f68747470733a2f2f6170692e6578616d706c652e636f6d2f7469636b6574732f8152509050600061266a8661307a565b905060006126778661307a565b9050828282876040516020016126909493929190614d09565b60405160208183030381529060405293505050509392505050565b806006600084815260200190815260200160002090816126cb919061495f565b507ff8e1a15aba9398e019f0b49df1a4fde98ee17ae345cb5f6b5e2c27f5033e8ce7826040516126fb9190613b0a565b60405180910390a15050565b61270f612232565b73ffffffffffffffffffffffffffffffffffffffff1661272d611827565b73ffffffffffffffffffffffffffffffffffffffff161461278c57612750612232565b6040517f118cdaa70000000000000000000000000000000000000000000000000000000081526004016127839190613874565b60405180910390fd5b565b6000600760009054906101000a900473ffffffffffffffffffffffffffffffffffffffff16905081600760006101000a81548173ffffffffffffffffffffffffffffffffffffffff021916908373ffffffffffffffffffffffffffffffffffffffff1602179055508173ffffffffffffffffffffffffffffffffffffffff168173ffffffffffffffffffffffffffffffffffffffff167f8be0079c531659141344cd1fd0a4f28419497f9722a3daafe3b4186f6b6457e060405160405180910390a35050565b600073ffffffffffffffffffffffffffffffffffffffff168273ffffffffffffffffffffffffffffffffffffffff16036128c557816040517f5b08ba180000000000000000000000000000000000000000000000000000000081526004016128bc9190613874565b60405180910390fd5b80600560008573ffffffffffffffffffffffffffffffffffffffff1673ffffffffffffffffffffffffffffffffffffffff16815260200190815260200160002060008473ffffffffffffffffffffffffffffffffffffffff1673ffffffffffffffffffffffffffffffffffffffff16815260200190815260200160002060006101000a81548160ff0219169083151502179055508173ffffffffffffffffffffffffffffffffffffffff168373ffffffffffffffffffffffffffffffffffffffff167f17307eab39ab6107e8899845ad3d59bd9653f200f220920489ca2b5937696c31836040516129b69190613703565b60405180910390a3505050565b60008373ffffffffffffffffffffffffffffffffffffffff163b1115612b6d578273ffffffffffffffffffffffffffffffffffffffff1663150b7a02868685856040518563ffffffff1660e01b8152600401612a229493929190614db2565b6020604051808303816000875af1925050508015612a5e57506040513d601f19601f82011682018060405250810190612a5b9190614e13565b60015b612ae2573d8060008114612a8e576040519150601f19603f3d011682016040523d82523d6000602084013e612a93565b606091505b506000815103612ada57836040517f64a0ae92000000000000000000000000000000000000000000000000000000008152600401612ad19190613874565b60405180910390fd5b805181602001fd5b63150b7a0260e01b7bffffffffffffffffffffffffffffffffffffffffffffffffffffffff1916817bffffffffffffffffffffffffffffffffffffffffffffffffffffffff191614612b6b57836040517f64a0ae92000000000000000000000000000000000000000000000000000000008152600401612b629190613874565b60405180910390fd5b505b5050505050565b606060405180602001604052806000815250905090565b6060612b968261216d565b506000612ba1612b74565b90506000815111612bc15760405180602001604052806000815250612bec565b80612bcb84613202565b604051602001612bdc929190614bad565b6040516020818303038152906040525b915050919050565b60007f01ffc9a7000000000000000000000000000000000000000000000000000000007bffffffffffffffffffffffffffffffffffffffffffffffffffffffff1916827bffffffffffffffffffffffffffffffffffffffffffffffffffffffff1916149050919050565b60006002600083815260200190815260200160002060009054906101000a900473ffffffffffffffffffffffffffffffffffffffff169050919050565b8080612cd45750600073ffffffffffffffffffffffffffffffffffffffff168273ffffffffffffffffffffffffffffffffffffffff1614155b15612e08576000612ce48461216d565b9050600073ffffffffffffffffffffffffffffffffffffffff168373ffffffffffffffffffffffffffffffffffffffff1614158015612d4f57508273ffffffffffffffffffffffffffffffffffffffff168173ffffffffffffffffffffffffffffffffffffffff1614155b8015612d625750612d608184611f59565b155b15612da457826040517fa9fbf51f000000000000000000000000000000000000000000000000000000008152600401612d9b9190613874565b60405180910390fd5b8115612e0657838573ffffffffffffffffffffffffffffffffffffffff168273ffffffffffffffffffffffffffffffffffffffff167f8c5be1e5ebec7d5bd14f71427d1e84f3dd0314c0f7b2291e5b200ac8c7c3b92560405160405180910390a45b505b836004600085815260200190815260200160002060006101000a81548173ffffffffffffffffffffffffffffffffffffffff021916908373ffffffffffffffffffffffffffffffffffffffff16021790555050505050565b600080612e6c84612c5e565b9050600073ffffffffffffffffffffffffffffffffffffffff168373ffffffffffffffffffffffffffffffffffffffff1614612eae57612ead8184866132d0565b5b600073ffffffffffffffffffffffffffffffffffffffff168173ffffffffffffffffffffffffffffffffffffffff1614612f3f57612ef0600085600080612c9b565b6001600360008373ffffffffffffffffffffffffffffffffffffffff1673ffffffffffffffffffffffffffffffffffffffff168152602001908152602001600020600082825403925050819055505b600073ffffffffffffffffffffffffffffffffffffffff168573ffffffffffffffffffffffffffffffffffffffff1614612fc2576001600360008773ffffffffffffffffffffffffffffffffffffffff1673ffffffffffffffffffffffffffffffffffffffff168152602001908152602001600020600082825401925050819055505b846002600086815260200190815260200160002060006101000a81548173ffffffffffffffffffffffffffffffffffffffff021916908373ffffffffffffffffffffffffffffffffffffffff160217905550838573ffffffffffffffffffffffffffffffffffffffff168273ffffffffffffffffffffffffffffffffffffffff167fddf252ad1be2c89b69c2b068fc378daa952ba7f163c4a11628f55a4df523b3ef60405160405180910390a4809150509392505050565b6060600082036130c1576040518060400160405280600181526020017f300000000000000000000000000000000000000000000000000000000000000081525090506131fd565b600082905060005b600082146130f35780806130dc906146c8565b915050600a826130ec9190614e6f565b91506130c9565b60008167ffffffffffffffff81111561310f5761310e613b9b565b5b6040519080825280601f01601f1916602001820160405280156131415781602001600182028036833780820191505090505b50905060008290505b600086146131f55760018161315f9190614ea0565b90506000600a80886131719190614e6f565b61317b9190614ed4565b876131869190614ea0565b60306131929190614f23565b905060008160f81b9050808484815181106131b0576131af6144d7565b5b60200101907effffffffffffffffffffffffffffffffffffffffffffffffffffffffffffff1916908160001a905350600a886131ec9190614e6f565b9750505061314a565b819450505050505b919050565b60606000600161321184613394565b01905060008167ffffffffffffffff8111156132305761322f613b9b565b5b6040519080825280601f01601f1916602001820160405280156132625781602001600182028036833780820191505090505b509050600082602001820190505b6001156132c5578080600190039150507f3031323334353637383961626364656600000000000000000000000000000000600a86061a8153600a85816132b9576132b8614e40565b5b04945060008503613270575b819350505050919050565b6132db8383836134e7565b61338f57600073ffffffffffffffffffffffffffffffffffffffff168373ffffffffffffffffffffffffffffffffffffffff160361335057806040517f7e2732890000000000000000000000000000000000000000000000000000000081526004016133479190613b0a565b60405180910390fd5b81816040517f177e802f000000000000000000000000000000000000000000000000000000008152600401613386929190614f58565b60405180910390fd5b505050565b600080600090507a184f03e93ff9f4daa797ed6e38ed64bf6a1f01000000000000000083106133f2577a184f03e93ff9f4daa797ed6e38ed64bf6a1f01000000000000000083816133e8576133e7614e40565b5b0492506040810190505b6d04ee2d6d415b85acef8100000000831061342f576d04ee2d6d415b85acef8100000000838161342557613424614e40565b5b0492506020810190505b662386f26fc10000831061345e57662386f26fc10000838161345457613453614e40565b5b0492506010810190505b6305f5e1008310613487576305f5e100838161347d5761347c614e40565b5b0492506008810190505b61271083106134ac5761271083816134a2576134a1614e40565b5b0492506004810190505b606483106134cf57606483816134c5576134c4614e40565b5b0492506002810190505b600a83106134de576001810190505b80915050919050565b60008073ffffffffffffffffffffffffffffffffffffffff168373ffffffffffffffffffffffffffffffffffffffff161415801561359f57508273ffffffffffffffffffffffffffffffffffffffff168473ffffffffffffffffffffffffffffffffffffffff161480613560575061355f8484611f59565b5b8061359e57508273ffffffffffffffffffffffffffffffffffffffff16613586836121f5565b73ffffffffffffffffffffffffffffffffffffffff16145b5b90509392505050565b828054828255906000526020600020908101928215613621579160200282015b828111156136205782518260006101000a81548173ffffffffffffffffffffffffffffffffffffffff021916908373ffffffffffffffffffffffffffffffffffffffff160217905550916020019190600101906135c8565b5b50905061362e9190613632565b5090565b5b8082111561364b576000816000905550600101613633565b5090565b6000604051905090565b600080fd5b600080fd5b60007fffffffff0000000000000000000000000000000000000000000000000000000082169050919050565b61369881613663565b81146136a357600080fd5b50565b6000813590506136b58161368f565b92915050565b6000602082840312156136d1576136d0613659565b5b60006136df848285016136a6565b91505092915050565b60008115159050919050565b6136fd816136e8565b82525050565b600060208201905061371860008301846136f4565b92915050565b6000819050919050565b6137318161371e565b811461373c57600080fd5b50565b60008135905061374e81613728565b92915050565b60006020828403121561376a57613769613659565b5b60006137788482850161373f565b91505092915050565b600081519050919050565b600082825260208201905092915050565b60005b838110156137bb5780820151818401526020810190506137a0565b60008484015250505050565b6000601f19601f8301169050919050565b60006137e382613781565b6137ed818561378c565b93506137fd81856020860161379d565b613806816137c7565b840191505092915050565b6000602082019050818103600083015261382b81846137d8565b905092915050565b600073ffffffffffffffffffffffffffffffffffffffff82169050919050565b600061385e82613833565b9050919050565b61386e81613853565b82525050565b60006020820190506138896000830184613865565b92915050565b61389881613853565b81146138a357600080fd5b50565b6000813590506138b58161388f565b92915050565b600080604083850312156138d2576138d1613659565b5b60006138e0858286016138a6565b92505060206138f18582860161373f565b9150509250929050565b6139048161371e565b82525050565b7f4e487b7100000000000000000000000000000000000000000000000000000000600052602160045260246000fd5b6003811061394a5761394961390a565b5b50565b600081905061395b82613939565b919050565b600061396b8261394d565b9050919050565b61397b81613960565b82525050565b600060e082019050613996600083018a6138fb565b81810360208301526139a881896137d8565b90506139b76040830188613972565b6139c460608301876138fb565b6139d160808301866138fb565b6139de60a08301856138fb565b6139eb60c0830184613865565b98975050505050505050565b600080600060608486031215613a1057613a0f613659565b5b6000613a1e868287016138a6565b9350506020613a2f868287016138a6565b9250506040613a408682870161373f565b9150509250925092565b60008060408385031215613a6157613a60613659565b5b6000613a6f8582860161373f565b9250506020613a808582860161373f565b9150509250929050565b600060a082019050613a9f60008301886138fb565b613aac60208301876138fb565b613ab96040830186613865565b613ac660608301856138fb565b613ad360808301846136f4565b9695505050505050565b600060208284031215613af357613af2613659565b5b6000613b01848285016138a6565b91505092915050565b6000602082019050613b1f60008301846138fb565b92915050565b613b2e816136e8565b8114613b3957600080fd5b50565b600081359050613b4b81613b25565b92915050565b60008060408385031215613b6857613b67613659565b5b6000613b76858286016138a6565b9250506020613b8785828601613b3c565b9150509250929050565b600080fd5b600080fd5b7f4e487b7100000000000000000000000000000000000000000000000000000000600052604160045260246000fd5b613bd3826137c7565b810181811067ffffffffffffffff82111715613bf257613bf1613b9b565b5b80604052505050565b6000613c0561364f565b9050613c118282613bca565b919050565b600067ffffffffffffffff821115613c3157613c30613b9b565b5b613c3a826137c7565b9050602081019050919050565b82818337600083830152505050565b6000613c69613c6484613c16565b613bfb565b905082815260208101848484011115613c8557613c84613b96565b5b613c90848285613c47565b509392505050565b600082601f830112613cad57613cac613b91565b5b8135613cbd848260208601613c56565b91505092915050565b60008060008060808587031215613ce057613cdf613659565b5b6000613cee878288016138a6565b9450506020613cff878288016138a6565b9350506040613d108782880161373f565b925050606085013567ffffffffffffffff811115613d3157613d3061365e565b5b613d3d87828801613c98565b91505092959194509250565b600067ffffffffffffffff821115613d6457613d63613b9b565b5b613d6d826137c7565b9050602081019050919050565b6000613d8d613d8884613d49565b613bfb565b905082815260208101848484011115613da957613da8613b96565b5b613db4848285613c47565b509392505050565b600082601f830112613dd157613dd0613b91565b5b8135613de1848260208601613d7a565b91505092915050565b60038110613df757600080fd5b50565b600081359050613e0981613dea565b92915050565b60008060008060808587031215613e2957613e28613659565b5b600085013567ffffffffffffffff811115613e4757613e4661365e565b5b613e5387828801613dbc565b9450506020613e6487828801613dfa565b9350506040613e758782880161373f565b9250506060613e868782880161373f565b91505092959194509250565b600067ffffffffffffffff821115613ead57613eac613b9b565b5b602082029050602081019050919050565b600080fd5b6000613ed6613ed184613e92565b613bfb565b90508083825260208201905060208402830185811115613ef957613ef8613ebe565b5b835b81811015613f225780613f0e88826138a6565b845260208401935050602081019050613efb565b5050509392505050565b600082601f830112613f4157613f40613b91565b5b8135613f51848260208601613ec3565b91505092915050565b600080600060608486031215613f7357613f72613659565b5b6000613f818682870161373f565b935050602084013567ffffffffffffffff811115613fa257613fa161365e565b5b613fae86828701613dbc565b925050604084013567ffffffffffffffff811115613fcf57613fce61365e565b5b613fdb86828701613f2c565b9150509250925092565b60008060408385031215613ffc57613ffb613659565b5b600061400a858286016138a6565b925050602061401b858286016138a6565b9150509250929050565b7f4f6e6c7920666f72206861636b6174686f6e7300000000000000000000000000600082015250565b600061405b60138361378c565b915061406682614025565b602082019050919050565b6000602082019050818103600083015261408a8161404e565b9050919050565b7f4f6e6c79206f7267616e697a65722063616e2077697468647261770000000000600082015250565b60006140c7601b8361378c565b91506140d282614091565b602082019050919050565b600060208201905081810360008301526140f6816140ba565b9050919050565b7f4e487b7100000000000000000000000000000000000000000000000000000000600052602260045260246000fd5b6000600282049050600182168061414457607f821691505b602082108103614157576141566140fd565b5b50919050565b7f5469636b657420646f6573206e6f742065786973740000000000000000000000600082015250565b600061419360158361378c565b915061419e8261415d565b602082019050919050565b600060208201905081810360008301526141c281614186565b9050919050565b7f5469636b6574206973206e6f7420666f722073616c6500000000000000000000600082015250565b60006141ff60168361378c565b915061420a826141c9565b602082019050919050565b6000602082019050818103600083015261422e816141f2565b9050919050565b7f496e636f7272656374207061796d656e7420616d6f756e740000000000000000600082015250565b600061426b60188361378c565b915061427682614235565b602082019050919050565b6000602082019050818103600083015261429a8161425e565b9050919050565b60006040820190506142b660008301856138fb565b6142c36020830184613865565b9392505050565b60006060820190506142df6000830186613865565b6142ec60208301856138fb565b6142f96040830184613865565b949350505050565b7f596f7520617265206e6f7420746865206f776e6572206f66207468697320746960008201527f636b657400000000000000000000000000000000000000000000000000000000602082015250565b600061435d60248361378c565b915061436882614301565b604082019050919050565b6000602082019050818103600083015261438c81614350565b9050919050565b7f5469636b6574206973206e6f74206c697374656420666f7220726573616c6500600082015250565b60006143c9601f8361378c565b91506143d482614393565b602082019050919050565b600060208201905081810360008301526143f8816143bc565b9050919050565b7f4f6e6c79206f7267616e697a65722063616e2061776172640000000000000000600082015250565b600061443560188361378c565b9150614440826143ff565b602082019050919050565b6000602082019050818103600083015261446481614428565b9050919050565b7f496e76616c6964207465616d20696e6465780000000000000000000000000000600082015250565b60006144a160128361378c565b91506144ac8261446b565b602082019050919050565b600060208201905081810360008301526144d081614494565b9050919050565b7f4e487b7100000000000000000000000000000000000000000000000000000000600052603260045260246000fd5b7f526573616c65207072696365206d75737420626520677265617465722074686160008201527f6e20300000000000000000000000000000000000000000000000000000000000602082015250565b600061456260238361378c565b915061456d82614506565b604082019050919050565b6000602082019050818103600083015261459181614555565b9050919050565b60006040820190506145ad60008301856138fb565b6145ba60208301846138fb565b9392505050565b7f4576656e7420646f6573206e6f74206578697374000000000000000000000000600082015250565b60006145f760148361378c565b9150614602826145c1565b602082019050919050565b60006020820190508181036000830152614626816145ea565b9050919050565b7f4576656e7420697320736f6c64206f7574000000000000000000000000000000600082015250565b600061466360118361378c565b915061466e8261462d565b602082019050919050565b6000602082019050818103600083015261469281614656565b9050919050565b7f4e487b7100000000000000000000000000000000000000000000000000000000600052601160045260246000fd5b60006146d38261371e565b91507fffffffffffffffffffffffffffffffffffffffffffffffffffffffffffffffff820361470557614704614699565b5b600182019050919050565b600060608201905061472560008301866138fb565b61473260208301856138fb565b61473f6040830184613865565b949350505050565b7f4361706163697479206d7573742062652067726561746572207468616e203000600082015250565b600061477d601f8361378c565b915061478882614747565b602082019050919050565b600060208201905081810360008301526147ac81614770565b9050919050565b60008190508160005260206000209050919050565b60006020601f8301049050919050565b600082821b905092915050565b6000600883026148157fffffffffffffffffffffffffffffffffffffffffffffffffffffffffffffffff826147d8565b61481f86836147d8565b95508019841693508086168417925050509392505050565b6000819050919050565b600061485c6148576148528461371e565b614837565b61371e565b9050919050565b6000819050919050565b61487683614841565b61488a61488282614863565b8484546147e5565b825550505050565b600090565b61489f614892565b6148aa81848461486d565b505050565b5b818110156148ce576148c3600082614897565b6001810190506148b0565b5050565b601f821115614913576148e4816147b3565b6148ed846147c8565b810160208510156148fc578190505b614910614908856147c8565b8301826148af565b50505b505050565b600082821c905092915050565b600061493660001984600802614918565b1980831691505092915050565b600061494f8383614925565b9150826002028217905092915050565b61496882613781565b67ffffffffffffffff81111561498157614980613b9b565b5b61498b825461412c565b6149968282856148d2565b600060209050601f8311600181146149c957600084156149b7578287015190505b6149c18582614943565b865550614a29565b601f1984166149d7866147b3565b60005b828110156149ff578489015182556001820191506020850194506020810190506149da565b86831015614a1c5784890151614a18601f891682614925565b8355505b6001600288020188555050505b505050505050565b600060c082019050614a4660008301896138fb565b8181036020830152614a5881886137d8565b9050614a676040830187613972565b614a7460608301866138fb565b614a8160808301856138fb565b614a8e60a0830184613865565b979650505050505050565b7f4e6f742061206861636b6174686f6e0000000000000000000000000000000000600082015250565b6000614acf600f8361378c565b9150614ada82614a99565b602082019050919050565b60006020820190508181036000830152614afe81614ac2565b9050919050565b7f5465616d206d7573742068617665206d656d6265727300000000000000000000600082015250565b6000614b3b60168361378c565b9150614b4682614b05565b602082019050919050565b60006020820190508181036000830152614b6a81614b2e565b9050919050565b600081905092915050565b6000614b8782613781565b614b918185614b71565b9350614ba181856020860161379d565b80840191505092915050565b6000614bb98285614b7c565b9150614bc58284614b7c565b91508190509392505050565b7f4f6e6c79206f7267616e697a65722063616e2066756e64000000000000000000600082015250565b6000614c0760178361378c565b9150614c1282614bd1565b602082019050919050565b60006020820190508181036000830152614c3681614bfa565b9050919050565b6000614c488261371e565b9150614c538361371e565b9250828201905080821115614c6b57614c6a614699565b5b92915050565b7f3f6576656e743d00000000000000000000000000000000000000000000000000600082015250565b6000614ca7600783614b71565b9150614cb282614c71565b600782019050919050565b7f266e616d653d0000000000000000000000000000000000000000000000000000600082015250565b6000614cf3600683614b71565b9150614cfe82614cbd565b600682019050919050565b6000614d158287614b7c565b9150614d218286614b7c565b9150614d2c82614c9a565b9150614d388285614b7c565b9150614d4382614ce6565b9150614d4f8284614b7c565b915081905095945050505050565b600081519050919050565b600082825260208201905092915050565b6000614d8482614d5d565b614d8e8185614d68565b9350614d9e81856020860161379d565b614da7816137c7565b840191505092915050565b6000608082019050614dc76000830187613865565b614dd46020830186613865565b614de160408301856138fb565b8181036060830152614df38184614d79565b905095945050505050565b600081519050614e0d8161368f565b92915050565b600060208284031215614e2957614e28613659565b5b6000614e3784828501614dfe565b91505092915050565b7f4e487b7100000000000000000000000000000000000000000000000000000000600052601260045260246000fd5b6000614e7a8261371e565b9150614e858361371e565b925082614e9557614e94614e40565b5b828204905092915050565b6000614eab8261371e565b9150614eb68361371e565b9250828203905081811115614ece57614ecd614699565b5b92915050565b6000614edf8261371e565b9150614eea8361371e565b9250828202614ef88161371e565b91508282048414831517614f0f57614f0e614699565b5b5092915050565b600060ff82169050919050565b6000614f2e82614f16565b9150614f3983614f16565b9250828201905060ff811115614f5257614f51614699565b5b92915050565b6000604082019050614f6d6000830185613865565b614f7a60208301846138fb565b939250505056fea26469706673582212204f2a59c008ee4f0b09ae66196f277a11be3e53db3511d80e6bdc58f463d994e064736f6c634300081c0033",
     "linkReferences": {},
     "deployedLinkReferences": {}
}